{
  "_format": "hh-sol-artifact-1",
  "contractName": "CumulativeMerkleAirdrop",
  "sourceName": "contracts/utility/CumulativeMerkleAirdrop.sol",
  "abi": [
    {
      "inputs": [
        {
          "internalType": "bytes32",
          "name": "_merkleRoot",
          "type": "bytes32"
        },
        {
          "internalType": "contract IERC20",
          "name": "_token",
          "type": "address"
        }
      ],
      "stateMutability": "nonpayable",
      "type": "constructor"
    },
    {
      "inputs": [],
      "name": "FullyClaimed",
      "type": "error"
    },
    {
      "inputs": [],
      "name": "NotInMerkle",
      "type": "error"
    },
    {
      "anonymous": false,
      "inputs": [
        {
          "indexed": false,
          "internalType": "address",
          "name": "claimant",
          "type": "address"
        },
        {
          "indexed": false,
          "internalType": "uint256",
          "name": "balance",
          "type": "uint256"
        }
      ],
      "name": "Claimed",
      "type": "event"
    },
    {
      "anonymous": false,
      "inputs": [
        {
          "indexed": false,
          "internalType": "bytes32",
          "name": "oldMerkleRoot",
          "type": "bytes32"
        },
        {
          "indexed": false,
          "internalType": "bytes32",
          "name": "newMerkleRoot",
          "type": "bytes32"
        }
      ],
      "name": "MerkelRootUpdated",
      "type": "event"
    },
    {
      "anonymous": false,
      "inputs": [
        {
          "indexed": true,
          "internalType": "address",
          "name": "previousOwner",
          "type": "address"
        },
        {
          "indexed": true,
          "internalType": "address",
          "name": "newOwner",
          "type": "address"
        }
      ],
      "name": "OwnershipTransferred",
      "type": "event"
    },
    {
      "inputs": [
        {
          "internalType": "address",
          "name": "to",
          "type": "address"
        },
        {
          "internalType": "uint256",
          "name": "totalClaim",
          "type": "uint256"
        },
        {
          "internalType": "bytes32[]",
          "name": "proof",
          "type": "bytes32[]"
        }
      ],
      "name": "claim",
      "outputs": [],
      "stateMutability": "nonpayable",
      "type": "function"
    },
    {
      "inputs": [
        {
          "internalType": "address",
          "name": "",
          "type": "address"
        }
      ],
      "name": "cumulativeClaimed",
      "outputs": [
        {
          "internalType": "uint256",
          "name": "",
          "type": "uint256"
        }
      ],
      "stateMutability": "view",
      "type": "function"
    },
    {
      "inputs": [],
      "name": "merkleRoot",
      "outputs": [
        {
          "internalType": "bytes32",
          "name": "",
          "type": "bytes32"
        }
      ],
      "stateMutability": "view",
      "type": "function"
    },
    {
      "inputs": [],
      "name": "owner",
      "outputs": [
        {
          "internalType": "address",
          "name": "",
          "type": "address"
        }
      ],
      "stateMutability": "view",
      "type": "function"
    },
    {
      "inputs": [],
      "name": "renounceOwnership",
      "outputs": [],
      "stateMutability": "nonpayable",
      "type": "function"
    },
    {
      "inputs": [
        {
          "internalType": "bytes32",
          "name": "merkleRoot_",
          "type": "bytes32"
        }
      ],
      "name": "setMerkleRoot",
      "outputs": [],
      "stateMutability": "nonpayable",
      "type": "function"
    },
    {
      "inputs": [],
      "name": "token",
      "outputs": [
        {
          "internalType": "contract IERC20",
          "name": "",
          "type": "address"
        }
      ],
      "stateMutability": "view",
      "type": "function"
    },
    {
      "inputs": [
        {
          "internalType": "address",
          "name": "newOwner",
          "type": "address"
        }
      ],
      "name": "transferOwnership",
      "outputs": [],
      "stateMutability": "nonpayable",
      "type": "function"
    }
  ],
  "bytecode": "0x6080346100b157601f61088838819003918201601f19168301916001600160401b038311848410176100b65780849260409485528339810103126100b15780516020909101516001600160a01b0391828216918290036100b1576000549060018060a01b0319913383821617600055604051943391167f8be0079c531659141344cd1fd0a4f28419497f9722a3daafe3b4186f6b6457e0600080a360015560025416176002556107bb90816100cd8239f35b600080fd5b634e487b7160e01b600052604160045260246000fdfe608080604052600436101561001357600080fd5b60003560e01c9081632eb4a7ab14610606575080633d13f8741461027d578063715018a6146102245780637cb64759146101d15780638da5cb5b146101a8578063a99195761461016e578063f2fde38b146100a55763fc0c546a1461007757600080fd5b346100a05760003660031901126100a0576002546040516001600160a01b039091168152602090f35b600080fd5b346100a05760203660031901126100a0576100be610621565b6100c6610637565b6001600160a01b0390811690811561011a57600054826bffffffffffffffffffffffff60a01b821617600055167f8be0079c531659141344cd1fd0a4f28419497f9722a3daafe3b4186f6b6457e0600080a3005b60405162461bcd60e51b815260206004820152602660248201527f4f776e61626c653a206e6577206f776e657220697320746865207a65726f206160448201526564647265737360d01b6064820152608490fd5b346100a05760203660031901126100a0576001600160a01b0361018f610621565b1660005260036020526020604060002054604051908152f35b346100a05760003660031901126100a0576000546040516001600160a01b039091168152602090f35b346100a05760203660031901126100a0576004356101ed610637565b7f936fd71fceff3b4f98f4935ac269e4f94b4b25e3e38c519d3ff3db222a27117a60406001548151908152836020820152a1600155005b346100a05760003660031901126100a05761023d610637565b600080546001600160a01b0319811682556001600160a01b03167f8be0079c531659141344cd1fd0a4f28419497f9722a3daafe3b4186f6b6457e08280a3005b346100a05760603660031901126100a057610296610621565b6044359067ffffffffffffffff82116100a057366023830112156100a05781600401359167ffffffffffffffff83116100a0578260051b36602482840101116100a05760405191602083016bffffffffffffffffffffffff198560601b16815260243560348501526034845283606081011067ffffffffffffffff6060860111176105aa576060840160405283519020916001549561033b602083016060870161068f565b60608501526080840160248301915b60248185010183106105f15750505050916000925b60608301518410156103c65760808460051b84010151908181106000146103b55760005260205260406000205b92600019811461039f576001019261035f565b634e487b7160e01b600052601160045260246000fd5b90600052602052604060002061038c565b84036105df576001600160a01b03818116600081815260036020526040902054906024358210156105cd576000526003602052602435604060002055602435039060025416604051602081019063a9059cbb60e01b82528061044185876024840160209093929193604081019460018060a01b031681520152565b0390610455601f199283810183528261068f565b60405192604084019084821067ffffffffffffffff8311176105aa576000928392604052602086527f5361666545524332303a206c6f772d6c6576656c2063616c6c206661696c65646020870152519082875af13d156105c0573d9367ffffffffffffffff85116105aa576104e8946104d9602060405195601f840116018561068f565b83523d6000602085013e6106b1565b80518061052d575b604080516001600160a01b0386168152602081018590527fd8138f8a3f377c5259ca548e70e4c2de94f129f5a11036a15b69513cba2b426a9190a1005b81602091810103126100a057602001518015908115036100a0576105525782806104f0565b60405162461bcd60e51b815260206004820152602a60248201527f5361666545524332303a204552433230206f7065726174696f6e20646964206e6044820152691bdd081cdd58d8d9595960b21b6064820152608490fd5b634e487b7160e01b600052604160045260246000fd5b6104e893606092506106b1565b604051636c58830960e01b8152600490fd5b60405163452c2df160e11b8152600490fd5b6020806024938535815201930192915061034a565b346100a05760003660031901126100a0576020906001548152f35b600435906001600160a01b03821682036100a057565b6000546001600160a01b0316330361064b57565b606460405162461bcd60e51b815260206004820152602060248201527f4f776e61626c653a2063616c6c6572206973206e6f7420746865206f776e65726044820152fd5b90601f8019910116810190811067ffffffffffffffff8211176105aa57604052565b9192901561071357508151156106c5575090565b3b156106ce5790565b60405162461bcd60e51b815260206004820152601d60248201527f416464726573733a2063616c6c20746f206e6f6e2d636f6e74726163740000006044820152606490fd5b8251909150156107265750805190602001fd5b6040519062461bcd60e51b82528160208060048301528251908160248401526000935b82851061076c575050604492506000838284010152601f80199101168101030190fd5b848101820151868601604401529381019385935061074956fea2646970667358221220da07dcd196f6e1e830ade3bc8311ae519ea4b38524baa892322a54b4fa9c112f64736f6c63430008110033",
  "linkReferences": {},
  "deployedLinkReferences": {}
}