{
  "_format": "hh-sol-artifact-1",
  "contractName": "MultiSigWallet",
  "sourceName": "contracts/utility/MultiSigWallet.sol",
  "abi": [
    {
      "inputs": [
        {
          "internalType": "address[]",
          "name": "_owners",
          "type": "address[]"
        },
        {
          "internalType": "uint256",
          "name": "_numConfirmationsRequired",
          "type": "uint256"
        }
      ],
      "stateMutability": "nonpayable",
      "type": "constructor"
    },
    {
      "inputs": [],
      "name": "InvalidNonce",
      "type": "error"
    },
    {
      "inputs": [],
      "name": "InvalidOwner",
      "type": "error"
    },
    {
      "inputs": [],
      "name": "InvalidRequiredConfirmations",
      "type": "error"
    },
    {
      "inputs": [],
      "name": "InvalidSignature",
      "type": "error"
    },
    {
      "inputs": [],
      "name": "NotEnoughConfirmations",
      "type": "error"
    },
    {
      "inputs": [],
      "name": "NotMultiSig",
      "type": "error"
    },
    {
      "inputs": [],
      "name": "NotOwner",
      "type": "error"
    },
    {
      "inputs": [],
      "name": "OwnerNotUnique",
      "type": "error"
    },
    {
      "inputs": [],
      "name": "OwnersRequired",
      "type": "error"
    },
    {
      "inputs": [],
      "name": "TxAlreadyConfirmed",
      "type": "error"
    },
    {
      "inputs": [],
      "name": "TxAlreadyExecuted",
      "type": "error"
    },
    {
      "inputs": [],
      "name": "TxDoesNotExist",
      "type": "error"
    },
    {
      "inputs": [],
      "name": "TxFailure",
      "type": "error"
    },
    {
      "inputs": [],
      "name": "TxNotConfirmed",
      "type": "error"
    },
    {
      "anonymous": false,
      "inputs": [
        {
          "indexed": true,
          "internalType": "address",
          "name": "owner",
          "type": "address"
        },
        {
          "indexed": true,
          "internalType": "uint256",
          "name": "txIndex",
          "type": "uint256"
        }
      ],
      "name": "ConfirmTransaction",
      "type": "event"
    },
    {
      "anonymous": false,
      "inputs": [
        {
          "indexed": true,
          "internalType": "address",
          "name": "sender",
          "type": "address"
        },
        {
          "indexed": false,
          "internalType": "uint256",
          "name": "amount",
          "type": "uint256"
        },
        {
          "indexed": false,
          "internalType": "uint256",
          "name": "balance",
          "type": "uint256"
        }
      ],
      "name": "Deposit",
      "type": "event"
    },
    {
      "anonymous": false,
      "inputs": [
        {
          "indexed": true,
          "internalType": "address",
          "name": "owner",
          "type": "address"
        },
        {
          "indexed": true,
          "internalType": "uint256",
          "name": "txIndex",
          "type": "uint256"
        }
      ],
      "name": "ExecuteTransaction",
      "type": "event"
    },
    {
      "anonymous": false,
      "inputs": [
        {
          "indexed": true,
          "internalType": "address",
          "name": "owner",
          "type": "address"
        }
      ],
      "name": "OwnerAddition",
      "type": "event"
    },
    {
      "anonymous": false,
      "inputs": [
        {
          "indexed": true,
          "internalType": "address",
          "name": "owner",
          "type": "address"
        }
      ],
      "name": "OwnerRemoval",
      "type": "event"
    },
    {
      "anonymous": false,
      "inputs": [
        {
          "indexed": false,
          "internalType": "uint256",
          "name": "required",
          "type": "uint256"
        }
      ],
      "name": "RequirementChange",
      "type": "event"
    },
    {
      "anonymous": false,
      "inputs": [
        {
          "indexed": true,
          "internalType": "address",
          "name": "owner",
          "type": "address"
        },
        {
          "indexed": true,
          "internalType": "uint256",
          "name": "txIndex",
          "type": "uint256"
        }
      ],
      "name": "RevokeConfirmation",
      "type": "event"
    },
    {
      "anonymous": false,
      "inputs": [
        {
          "indexed": true,
          "internalType": "address",
          "name": "owner",
          "type": "address"
        },
        {
          "indexed": true,
          "internalType": "uint256",
          "name": "txIndex",
          "type": "uint256"
        },
        {
          "indexed": true,
          "internalType": "address",
          "name": "to",
          "type": "address"
        },
        {
          "indexed": false,
          "internalType": "uint256",
          "name": "value",
          "type": "uint256"
        },
        {
          "indexed": false,
          "internalType": "bytes",
          "name": "data",
          "type": "bytes"
        }
      ],
      "name": "SubmitTransaction",
      "type": "event"
    },
    {
      "inputs": [
        {
          "internalType": "address",
          "name": "owner",
          "type": "address"
        }
      ],
      "name": "addOwner",
      "outputs": [],
      "stateMutability": "nonpayable",
      "type": "function"
    },
    {
      "inputs": [
        {
          "internalType": "uint256",
          "name": "_required",
          "type": "uint256"
        }
      ],
      "name": "changeRequirement",
      "outputs": [],
      "stateMutability": "nonpayable",
      "type": "function"
    },
    {
      "inputs": [
        {
          "internalType": "uint256",
          "name": "_txIndex",
          "type": "uint256"
        }
      ],
      "name": "confirmTransaction",
      "outputs": [],
      "stateMutability": "nonpayable",
      "type": "function"
    },
    {
      "inputs": [
        {
          "internalType": "uint256",
          "name": "_nonce",
          "type": "uint256"
        },
        {
          "internalType": "uint256",
          "name": "_txIndex",
          "type": "uint256"
        },
        {
          "internalType": "address",
          "name": "_owner",
          "type": "address"
        },
        {
          "internalType": "bytes",
          "name": "signature",
          "type": "bytes"
        }
      ],
      "name": "confirmTransactionOnBehalf",
      "outputs": [],
      "stateMutability": "nonpayable",
      "type": "function"
    },
    {
      "inputs": [
        {
          "internalType": "uint256",
          "name": "_txIndex",
          "type": "uint256"
        }
      ],
      "name": "executeTransaction",
      "outputs": [
        {
          "internalType": "bytes",
          "name": "",
          "type": "bytes"
        }
      ],
      "stateMutability": "nonpayable",
      "type": "function"
    },
    {
      "inputs": [
        {
          "internalType": "uint256",
          "name": "_nonce",
          "type": "uint256"
        },
        {
          "internalType": "uint256",
          "name": "_txIndex",
          "type": "uint256"
        },
        {
          "internalType": "address",
          "name": "_owner",
          "type": "address"
        },
        {
          "internalType": "bytes",
          "name": "signature",
          "type": "bytes"
        }
      ],
      "name": "executeTransactionOnBehalf",
      "outputs": [
        {
          "internalType": "bytes",
          "name": "",
          "type": "bytes"
        }
      ],
      "stateMutability": "nonpayable",
      "type": "function"
    },
    {
      "inputs": [
        {
          "internalType": "bytes32",
          "name": "_messageHash",
          "type": "bytes32"
        }
      ],
      "name": "getEthSignedMessageHash",
      "outputs": [
        {
          "internalType": "bytes32",
          "name": "",
          "type": "bytes32"
        }
      ],
      "stateMutability": "pure",
      "type": "function"
    },
    {
      "inputs": [
        {
          "internalType": "uint256",
          "name": "_nonce",
          "type": "uint256"
        },
        {
          "internalType": "uint256",
          "name": "_txIndex",
          "type": "uint256"
        },
        {
          "internalType": "address",
          "name": "_owner",
          "type": "address"
        }
      ],
      "name": "getMessageHash",
      "outputs": [
        {
          "internalType": "bytes32",
          "name": "",
          "type": "bytes32"
        }
      ],
      "stateMutability": "pure",
      "type": "function"
    },
    {
      "inputs": [],
      "name": "getNextNonce",
      "outputs": [
        {
          "internalType": "uint256",
          "name": "",
          "type": "uint256"
        }
      ],
      "stateMutability": "view",
      "type": "function"
    },
    {
      "inputs": [],
      "name": "getOwners",
      "outputs": [
        {
          "internalType": "address[]",
          "name": "",
          "type": "address[]"
        }
      ],
      "stateMutability": "view",
      "type": "function"
    },
    {
      "inputs": [
        {
          "internalType": "uint256",
          "name": "_txIndex",
          "type": "uint256"
        }
      ],
      "name": "getTransaction",
      "outputs": [
        {
          "internalType": "address",
          "name": "to",
          "type": "address"
        },
        {
          "internalType": "uint256",
          "name": "value",
          "type": "uint256"
        },
        {
          "internalType": "bytes",
          "name": "data",
          "type": "bytes"
        },
        {
          "internalType": "bool",
          "name": "executed",
          "type": "bool"
        },
        {
          "internalType": "uint256",
          "name": "numConfirmations",
          "type": "uint256"
        }
      ],
      "stateMutability": "view",
      "type": "function"
    },
    {
      "inputs": [],
      "name": "getTransactionCount",
      "outputs": [
        {
          "internalType": "uint256",
          "name": "",
          "type": "uint256"
        }
      ],
      "stateMutability": "view",
      "type": "function"
    },
    {
      "inputs": [
        {
          "internalType": "uint256",
          "name": "",
          "type": "uint256"
        },
        {
          "internalType": "address",
          "name": "",
          "type": "address"
        }
      ],
      "name": "isConfirmed",
      "outputs": [
        {
          "internalType": "bool",
          "name": "",
          "type": "bool"
        }
      ],
      "stateMutability": "view",
      "type": "function"
    },
    {
      "inputs": [
        {
          "internalType": "address",
          "name": "",
          "type": "address"
        }
      ],
      "name": "isOwner",
      "outputs": [
        {
          "internalType": "bool",
          "name": "",
          "type": "bool"
        }
      ],
      "stateMutability": "view",
      "type": "function"
    },
    {
      "inputs": [
        {
          "internalType": "address",
          "name": "",
          "type": "address"
        }
      ],
      "name": "nonces",
      "outputs": [
        {
          "internalType": "uint256",
          "name": "",
          "type": "uint256"
        }
      ],
      "stateMutability": "view",
      "type": "function"
    },
    {
      "inputs": [],
      "name": "numConfirmationsRequired",
      "outputs": [
        {
          "internalType": "uint256",
          "name": "",
          "type": "uint256"
        }
      ],
      "stateMutability": "view",
      "type": "function"
    },
    {
      "inputs": [
        {
          "internalType": "uint256",
          "name": "",
          "type": "uint256"
        }
      ],
      "name": "owners",
      "outputs": [
        {
          "internalType": "address",
          "name": "",
          "type": "address"
        }
      ],
      "stateMutability": "view",
      "type": "function"
    },
    {
      "inputs": [
        {
          "internalType": "bytes32",
          "name": "_ethSignedMessageHash",
          "type": "bytes32"
        },
        {
          "internalType": "bytes",
          "name": "_signature",
          "type": "bytes"
        }
      ],
      "name": "recoverSigner",
      "outputs": [
        {
          "internalType": "address",
          "name": "",
          "type": "address"
        }
      ],
      "stateMutability": "pure",
      "type": "function"
    },
    {
      "inputs": [
        {
          "internalType": "address",
          "name": "owner",
          "type": "address"
        }
      ],
      "name": "removeOwner",
      "outputs": [],
      "stateMutability": "nonpayable",
      "type": "function"
    },
    {
      "inputs": [
        {
          "internalType": "address",
          "name": "owner",
          "type": "address"
        },
        {
          "internalType": "address",
          "name": "nextOwner",
          "type": "address"
        }
      ],
      "name": "replaceOwner",
      "outputs": [],
      "stateMutability": "nonpayable",
      "type": "function"
    },
    {
      "inputs": [
        {
          "internalType": "uint256",
          "name": "_txIndex",
          "type": "uint256"
        }
      ],
      "name": "revokeConfirmation",
      "outputs": [],
      "stateMutability": "nonpayable",
      "type": "function"
    },
    {
      "inputs": [
        {
          "internalType": "uint256",
          "name": "_nonce",
          "type": "uint256"
        },
        {
          "internalType": "uint256",
          "name": "_txIndex",
          "type": "uint256"
        },
        {
          "internalType": "address",
          "name": "_owner",
          "type": "address"
        },
        {
          "internalType": "bytes",
          "name": "signature",
          "type": "bytes"
        }
      ],
      "name": "revokeConfirmationOnBehalf",
      "outputs": [],
      "stateMutability": "nonpayable",
      "type": "function"
    },
    {
      "inputs": [
        {
          "internalType": "bytes",
          "name": "sig",
          "type": "bytes"
        }
      ],
      "name": "splitSignature",
      "outputs": [
        {
          "internalType": "bytes32",
          "name": "r",
          "type": "bytes32"
        },
        {
          "internalType": "bytes32",
          "name": "s",
          "type": "bytes32"
        },
        {
          "internalType": "uint8",
          "name": "v",
          "type": "uint8"
        }
      ],
      "stateMutability": "pure",
      "type": "function"
    },
    {
      "inputs": [
        {
          "internalType": "address",
          "name": "_to",
          "type": "address"
        },
        {
          "internalType": "uint256",
          "name": "_value",
          "type": "uint256"
        },
        {
          "internalType": "bytes",
          "name": "_data",
          "type": "bytes"
        }
      ],
      "name": "submitTransaction",
      "outputs": [],
      "stateMutability": "nonpayable",
      "type": "function"
    },
    {
      "inputs": [
        {
          "internalType": "uint256",
          "name": "",
          "type": "uint256"
        }
      ],
      "name": "transactions",
      "outputs": [
        {
          "internalType": "address",
          "name": "to",
          "type": "address"
        },
        {
          "internalType": "uint256",
          "name": "value",
          "type": "uint256"
        },
        {
          "internalType": "bytes",
          "name": "data",
          "type": "bytes"
        },
        {
          "internalType": "bool",
          "name": "executed",
          "type": "bool"
        },
        {
          "internalType": "uint256",
          "name": "numConfirmations",
          "type": "uint256"
        }
      ],
      "stateMutability": "view",
      "type": "function"
    },
    {
      "inputs": [
        {
          "internalType": "uint256",
          "name": "_nonce",
          "type": "uint256"
        },
        {
          "internalType": "uint256",
          "name": "_txIndex",
          "type": "uint256"
        },
        {
          "internalType": "address",
          "name": "_owner",
          "type": "address"
        },
        {
          "internalType": "bytes",
          "name": "signature",
          "type": "bytes"
        }
      ],
      "name": "verify",
      "outputs": [
        {
          "internalType": "bool",
          "name": "",
          "type": "bool"
        }
      ],
      "stateMutability": "view",
      "type": "function"
    },
    {
      "stateMutability": "payable",
      "type": "receive"
    }
  ],
  "bytecode": "0x60406080815234620002225762001ede803803806200001e8162000227565b9283398101918082840312620002225781516001600160401b039390848111620002225783019281601f85011215620002225783519485116200017d5760059185831b60209586806200007381850162000227565b809a81520192820101928311620002225790868094939201905b828210620001f657505050015193805115620001e55784158015620001d9575b620001c85760005b8151811015620001b55780831b82018501516001600160a01b03168015620001a45780600052600180875260ff86600020541662000193576000828152818852868120805460ff1916831790555490680100000000000000008210156200017d57810180600055811015620001675760008080528790200180546001600160a01b031916909117905560001981146200015157600101620000b5565b634e487b7160e01b600052601160045260246000fd5b634e487b7160e01b600052603260045260246000fd5b634e487b7160e01b600052604160045260246000fd5b855163d67c6fdb60e01b8152600490fd5b84516349e27cff60e01b8152600490fd5b838660035551611c9090816200024e8239f35b8251636312410b60e01b8152600490fd5b508051851015620000ad565b825163401b9c4b60e01b8152600490fd5b815193945091929091906001600160a01b0381168103620002225781528693929184019084016200008d565b600080fd5b6040519190601f01601f191682016001600160401b038111838210176200017d5760405256fe60806040526004361015610023575b361561001957600080fd5b610021611562565b005b60003560e01c8063025e7c271461022b5780630285a0d014610222578063173825d9146102195780631cfc73401461021057806320ea8d86146102075780632e7700f0146101fe5780632f54bf6e146101f557806333ea3dc8146101ec5780637065cb48146101e35780637ecebe00146101da57806380f59a65146101d1578063839458ff146101c857806397aba7f9146101bf5780639ace38c2146101b6578063a0e67e2b146101ad578063a7bb5803146101a4578063ba51a6df1461019b578063bd7084b214610192578063c01a8c8414610189578063c537c7aa14610180578063c642747414610177578063d0549b851461016e578063e20056e614610165578063e45d309c1461015c578063ee22610b146101535763fa5408010361000e5761014e611543565b61000e565b5061014e6114f7565b5061014e6114c1565b5061014e61135d565b5061014e61133e565b5061014e6110bf565b5061014e61102a565b5061014e610f35565b5061014e610ecc565b5061014e610e76565b5061014e610e10565b5061014e610cf7565b5061014e610bf8565b5061014e610a1d565b5061014e610997565b5061014e610944565b5061014e610909565b5061014e61083d565b5061014e6107e3565b5061014e610748565b5061014e610729565b5061014e61061f565b5061014e6105d2565b5061014e610451565b5061014e610371565b5061014e61027d565b50634e487b7160e01b600052603260045260246000fd5b600054811015610270575b60008052600080516020611c3b8339815191520190600090565b610278610234565b610256565b50346102c65760203660031901126102c6576004356000548110156102c65760008052600080516020611c3b83398151915201546040516001600160a01b039091168152602090f35b600080fd5b600435906001600160a01b03821682036102c657565b602435906001600160a01b03821682036102c657565b9181601f840112156102c65782359167ffffffffffffffff83116102c657602083818601950101116102c657565b9060806003198301126102c65760043591602435916044356001600160a01b03811681036102c657916064359067ffffffffffffffff82116102c65761036d916004016102f7565b9091565b50346102c65761038036610325565b6001600160a01b0383166000908152600160205260408120549095929060ff161561044d576002602052604086205460018101809111610440575b830361042e576103e761040892610401926103e26103dd888a61040c99611adb565b611b36565b611bee565b6001600160a01b0316600090815260016020526040902090565b5460ff1690565b1590565b61041c576104199161181b565b80f35b604051638baa579f60e01b8152600490fd5b604051633ab3447f60e11b8152600490fd5b610448611597565b6103bb565b8580fd5b50346102c65760203660031901126102c65761046b6102cb565b3033036105c0576001600160a01b038181166000818152600160208190526040822054919490939160ff16156105bc576001600160a01b031660009081526001602052604090206104c1905b805460ff19169055565b83835b610519575b505090506104d56115e1565b600354825480911161050a575b507f8001553a916ef2f495d26a907cc54d96ed840d7bda71e73194bf5a9df7a76b908280a280f35b61051390611652565b386104e2565b8454610524816115ca565b8210156105b657838361054e6105398561024b565b905460039190911b1c6001600160a01b031690565b1614610564575061055e906115ae565b836104c4565b6105ae93945061058a91925061053961057f610584926115ca565b61024b565b9161024b565b90919082549060031b9160018060a01b039283811b93849216901b16911916179055565b8038806104c9565b506104c9565b8480fd5b60405163cfa65c8d60e01b8152600490fd5b50346102c6576103dd6106016103e26105ea36610325565b6001600160a01b0397909591949193909291611adb565b166000526001602052602060ff604060002054166040519015158152f35b50346102c65760203660031901126102c65760048035600091338352600160205260409060ff82852054161561071b5760055483101561070d5760ff600361066685610a6f565b500154166106ff5782845260208181528285203360009081529152604090205460ff16156106f15790816106c19261069d85610a6f565b50018054600019019055838552602090815290842033600090815291526040902090565b805460ff19169055337ff0dca620e2e81f7841d07bcc105e1704fb01475b278a9d4c236e1c62945edd558380a380f35b90516333d36b7960e01b8152fd5b9051632ea945cf60e01b8152fd5b9051639e1b596f60e01b8152fd5b90516330cd747160e01b8152fd5b50346102c65760003660031901126102c6576020600554604051908152f35b50346102c65760203660031901126102c6576001600160a01b036106016102cb565b919082519283825260005b848110610796575050826000602080949584010152601f8019910116010190565b602081830181015184830182015201610775565b91926080936107d7929796959760018060a01b03168452602084015260a0604084015260a083019061076a565b94151560608201520152565b50346102c65760203660031901126102c657610800600435610a6f565b5060018060a01b0381541661083960018301549260ff60038201541661082d600260048401549301610b52565b604051958695866107aa565b0390f35b50346102c65760203660031901126102c6576108576102cb565b3033036105c0576001600160a01b03811660008181526001602052604081205490929060ff166109055781156108f3576108bf90828452600160205260408420600160ff1982541617905561058a8454600160401b8110156108e6575b60018101865561024b565b7ff39e6e1eb0edcf53c221607b54b00cd28f3196fed0a24994dc308b8f611b682d8280a280f35b6108ee610af0565b6108b4565b6040516349e27cff60e01b8152600490fd5b8280fd5b50346102c65760203660031901126102c6576001600160a01b0361092b6102cb565b1660005260026020526020604060002054604051908152f35b50346102c65760403660031901126102c657602060ff61098b6109656102e1565b6004356000526004845260406000209060018060a01b0316600052602052604060002090565b54166040519015158152f35b50346102c6576109a636610325565b6001600160a01b0383166000908152600160205260408120549095929060ff161561044d576002602052604086205460018101809111610a10575b830361042e576103e761040892610401926103e26103dd888a610a0399611adb565b61041c5761041991611715565b610a18611597565b6109e1565b50346102c65760403660031901126102c65760243567ffffffffffffffff81116102c657610a5d610a5460209236906004016102f7565b90600435611bee565b6040516001600160a01b039091168152f35b6005908154811015610aa9575b81600052027f036b6384b5eca791c62761152d0c79bb0604c104a5fb6f4eb0703f3154bb3db00190600090565b610ab1610234565b610a7c565b90600182811c92168015610ae6575b6020831014610ad057565b634e487b7160e01b600052602260045260246000fd5b91607f1691610ac5565b50634e487b7160e01b600052604160045260246000fd5b60a0810190811067ffffffffffffffff821117610b2357604052565b610b2b610af0565b604052565b90601f8019910116810190811067ffffffffffffffff821117610b2357604052565b9060405191826000825492610b6684610ab6565b908184526001948581169081600014610bd55750600114610b92575b5050610b9092500383610b30565b565b9093915060005260209081600020936000915b818310610bbd575050610b9093508201013880610b82565b85548884018501529485019487945091830191610ba5565b915050610b9094506020925060ff191682840152151560051b8201013880610b82565b50346102c65760203660031901126102c6576004356005548110156102c657600590816000520260018060a01b03817f036b6384b5eca791c62761152d0c79bb0604c104a5fb6f4eb0703f3154bb3db00154166108397f036b6384b5eca791c62761152d0c79bb0604c104a5fb6f4eb0703f3154bb3db183015492610c9e7f036b6384b5eca791c62761152d0c79bb0604c104a5fb6f4eb0703f3154bb3db28201610b52565b907f036b6384b5eca791c62761152d0c79bb0604c104a5fb6f4eb0703f3154bb3db460ff7f036b6384b5eca791c62761152d0c79bb0604c104a5fb6f4eb0703f3154bb3db38301541691015491604051958695866107aa565b50346102c657600080600319360112610dab57604051809180549081835260208093018092828052600080516020611c3b83398151915290835b818110610d8e5750505084610d47910385610b30565b60405193838594850191818652518092526040850193925b828110610d6e57505050500390f35b83516001600160a01b031685528695509381019392810192600101610d5f565b82546001600160a01b031684529286019260019283019201610d31565b80fd5b60209067ffffffffffffffff8111610dcc575b601f01601f19160190565b610dd4610af0565b610dc1565b929192610de582610dae565b91610df36040519384610b30565b8294818452818301116102c6578281602093846000960137010152565b50346102c65760203660031901126102c65760043567ffffffffffffffff81116102c657366023820112156102c65760ff610e5f610e5a6060933690602481600401359101610dd9565b611b8a565b906040939293519384526020840152166040820152f35b50346102c65760203660031901126102c6576004353033036105c05760005481116102c6576020817fa3f1ee9126a074d9326c682f561767f710e927faa811f7a99829d49dc421797a92600355604051908152a1005b50346102c657600080600319360112610dab57338152600160205260ff60408220541615610f2357604060209133815260028352205460018101809111610f16575b604051908152f35b610f1e611597565b610f0e565b6040516330cd747160e01b8152600490fd5b50346102c65760203660031901126102c65760048035600091338352600160205260409060ff82852054161561071b5760055483101561070d5760ff6003610f7c85610a6f565b500154166106ff5782845260208181528285203360009081529152604090205460ff16611008579081610fd592610fb285610a6f565b500180546001019055838552602090815290842033600090815291526040902090565b805460ff19166001179055337f5cbe105e36805f7820e291f799d5794ff948af2a5f664e580382defb633900418380a380f35b905163276b851960e21b8152fd5b90602061102792818152019061076a565b90565b50346102c65761103936610325565b9060018060a09694961b038516600052600160205260ff60406000205416156102c6576002602052604060002054600181018091116110b2575b830361042e576103e761040892610401926103e26103dd898961109599611adb565b61041c57610839916110a691611ab3565b60405191829182611016565b6110ba611597565b611073565b50346102c65760603660031901126102c6576110d96102cb565b67ffffffffffffffff906024356044358381116102c6576110fe9036906004016102f7565b92909160009333855260019360209385855260ff60408820541615610f23576005549487604051809a61113082610b07565b6001600160a01b03948516808352848301898152909a90946080611155368b8b610dd9565b94604081019586526060810196875201958d8752600160401b8c1015611331575b828c016005556111858c610a6f565b98909861131d578e9f9e9b9c9d9e51166bffffffffffffffffffffffff60a01b89541617885551828801556002870193518051938411611310575b6111d4846111ce8754610ab6565b87611693565b81601f851160011461126d575092808060049897946112479794611232977fd5a05bf70715ad82a09a756320284a1b54c9ff74cd0f8cce6219e79b563fe59d9f94611262575b50501b916000199060031b1c19161790555b51151590565b600385019060ff801983541691151516179055565b5191015561125c6040519283923396846116e7565b0390a480f35b01519250388061121a565b601f9b9395969798999a9b1985169061128b88600052602060002090565b94905b8282106112f957505093600497937fd5a05bf70715ad82a09a756320284a1b54c9ff74cd0f8cce6219e79b563fe59d9c9b9a99979361124797938361123298106112e0575b505050811b01905561122c565b015160001960f88460031b161c191690553880806112d3565b80888697829497870151815501960194019061128e565b611318610af0565b6111c0565b634e487b7160e01b8f5260048f905260248ffd5b611339610af0565b611176565b50346102c65760003660031901126102c6576020600354604051908152f35b50346102c65760403660031901126102c6576113776102cb565b61137f6102e1565b903033036105c05760018060a01b038082166000938185526001938460205260ff6040872054161561044d578382169384875260ff6040882054166114bd5784156108f35786865b61144d575b8786866114026113f5886103e76104b78a60018060a01b03166000526001602052604060002090565b805460ff19166001179055565b7f8001553a916ef2f495d26a907cc54d96ed840d7bda71e73194bf5a9df7a76b908380a27ff39e6e1eb0edcf53c221607b54b00cd28f3196fed0a24994dc308b8f611b682d8280a280f35b87548110156114b857878052600080516020611c3b83398151915281015482166001600160a01b0316851461148b57611485906115ae565b866113c7565b611402949596506103e7915083926114ac6113f59561058a6104b79461024b565b929350869594506113cc565b6113cc565b8680fd5b50346102c65760603660031901126102c6576044356001600160a01b03811681036102c657610f0e602091602435600435611adb565b50346102c65760203660031901126102c65733600052600160205260ff6040600020541615610f235761083961152f60043533611900565b60405191829160208352602083019061076a565b50346102c65760203660031901126102c6576020610f0e600435611b36565b476040519034825260208201527f90890809c654f11d6e72a28fa60149770a0d11ec6c92319d6ceb2bb0a4ea1a1560403392a2565b50634e487b7160e01b600052601160045260246000fd5b60019060001981146115be570190565b6115c6611597565b0190565b6000198101919082116115d957565b610b90611597565b6000805490811561163e577f290decd9548b62a8d60345a988386fc84ba6bc95484008f6362f93160ef3e56260001983019280841015611631575b8280520180546001600160a01b031916905555565b611639610234565b61161c565b634e487b7160e01b81526031600452602490fd5b3033036105c05760005481116102c6576020817fa3f1ee9126a074d9326c682f561767f710e927faa811f7a99829d49dc421797a92600355604051908152a1565b90601f81116116a157505050565b600091825260208220906020601f850160051c830194106116dd575b601f0160051c01915b8281106116d257505050565b8181556001016116c6565b90925082906116bd565b91926060938192845260406020850152816040850152848401376000828201840152601f01601f1916010190565b9060018060a01b03811690600090828252600260205260408083206001815401905560055485101561180b5760ff600361174e87610a6f565b500154166117fb57848352600460209081528184206001600160a01b03841660009081529152604090205460ff166117eb577f5cbe105e36805f7820e291f799d5794ff948af2a5f664e580382defb6339004192916117dc9160046117b288610a6f565b500160018154019055868452600460205283209060018060a01b0316600052602052604060002090565b805460ff1916600117905580a3565b5163276b851960e21b8152600490fd5b51632ea945cf60e01b8152600490fd5b51639e1b596f60e01b8152600490fd5b9060018060a01b03811690600090828252600260205260408083206001815401905560055485101561180b5760ff600361185487610a6f565b500154166117fb57848352600460209081528184206001600160a01b03841660009081529152604090205460ff16156118f0577ff0dca620e2e81f7841d07bcc105e1704fb01475b278a9d4c236e1c62945edd5592916118e49160046118b988610a6f565b50016000198154019055868452600460205283209060018060a01b0316600052602052604060002090565b805460ff1916905580a3565b516333d36b7960e01b8152600490fd5b906005548110156119ee5760ff600361191883610a6f565b500154166119dc5761192981610a6f565b506004810154600354116119ca5760008161194f6003839401600160ff19825416179055565b80546002906001600160a01b0316916001810154906119746040518094819301611a00565b03925af191611981611a83565b92156119b8576001600160a01b03167f5445f318f4f5fcfb66592e68e0cc5822aa15664039bd5f0ffde24c5a8142b1ac600080a390565b6040516365dbad1160e01b8152600490fd5b604051635c9885ab60e11b8152600490fd5b604051632ea945cf60e01b8152600490fd5b604051639e1b596f60e01b8152600490fd5b600092918154611a0f81610ab6565b92600191808316908115611a685750600114611a2c575b50505050565b90919293945060005260209081600020906000915b858310611a575750505050019038808080611a26565b805485840152918301918101611a41565b60ff1916845250505081151590910201915038808080611a26565b3d15611aae573d90611a9482610dae565b91611aa26040519384610b30565b82523d6000602084013e565b606090565b6001600160a01b03821660009081526002602052604090208054600101905561102791611900565b91604051916020830193845260408301526bffffffffffffffffffffffff199060601b166060820152605481526080810181811067ffffffffffffffff821117611b29575b60405251902090565b611b31610af0565b611b20565b60405160208101917f19457468657265756d205369676e6564204d6573736167653a0a3332000000008352603c820152603c81526060810181811067ffffffffffffffff821117611b295760405251902090565b6041815103611ba9576020810151916060604083015192015160001a90565b60405162461bcd60e51b815260206004820152601860248201527f496e76616c6964207369676e6174757265206c656e67746800000000000000006044820152606490fd5b60809060ff611c06610e5a6000956020973691610dd9565b6040805195865293168785015291830152606082015282805260015afa15611c2e5760005190565b6040513d6000823e3d90fdfe290decd9548b62a8d60345a988386fc84ba6bc95484008f6362f93160ef3e563a264697066735822122061d1b662cfb85ae66ff34b3df6068ca4f06edd6525861a1bf1555032273d9be964736f6c63430008110033",
  "linkReferences": {},
  "deployedLinkReferences": {}
}