{
  "_format": "hh-sol-artifact-1",
  "contractName": "PokemonCenter",
  "sourceName": "contracts/Farming/PokemonCenter.sol",
  "abi": [
    {
      "inputs": [
        {
          "internalType": "contract PokePoint",
          "name": "_pokePoint",
          "type": "address"
        },
        {
          "internalType": "contract ThunderDomeNFT",
          "name": "_pokemon",
          "type": "address"
        }
      ],
      "stateMutability": "nonpayable",
      "type": "constructor"
    },
    {
      "anonymous": false,
      "inputs": [
        {
          "indexed": true,
          "internalType": "address",
          "name": "from",
          "type": "address"
        },
        {
          "indexed": false,
          "internalType": "uint256",
          "name": "tokenId",
          "type": "uint256"
        }
      ],
      "name": "Deposited",
      "type": "event"
    },
    {
      "anonymous": false,
      "inputs": [
        {
          "indexed": true,
          "internalType": "address",
          "name": "from",
          "type": "address"
        },
        {
          "indexed": false,
          "internalType": "uint256",
          "name": "tokenId",
          "type": "uint256"
        }
      ],
      "name": "Withdrawal",
      "type": "event"
    },
    {
      "anonymous": false,
      "inputs": [
        {
          "indexed": true,
          "internalType": "address",
          "name": "to",
          "type": "address"
        },
        {
          "indexed": false,
          "internalType": "uint256",
          "name": "amount",
          "type": "uint256"
        }
      ],
      "name": "YieldWithdrawal",
      "type": "event"
    },
    {
      "inputs": [
        {
          "internalType": "address",
          "name": "_user",
          "type": "address"
        }
      ],
      "name": "calculateTotalYield",
      "outputs": [
        {
          "internalType": "uint256",
          "name": "rawYield",
          "type": "uint256"
        }
      ],
      "stateMutability": "view",
      "type": "function"
    },
    {
      "inputs": [
        {
          "internalType": "address",
          "name": "_user",
          "type": "address"
        }
      ],
      "name": "calculateYieldBlocks",
      "outputs": [
        {
          "internalType": "uint256",
          "name": "totalTime",
          "type": "uint256"
        }
      ],
      "stateMutability": "view",
      "type": "function"
    },
    {
      "inputs": [
        {
          "internalType": "uint256",
          "name": "_tokenId",
          "type": "uint256"
        }
      ],
      "name": "deposit",
      "outputs": [],
      "stateMutability": "nonpayable",
      "type": "function"
    },
    {
      "inputs": [
        {
          "internalType": "address",
          "name": "",
          "type": "address"
        },
        {
          "internalType": "uint256",
          "name": "",
          "type": "uint256"
        }
      ],
      "name": "depositedPokemon",
      "outputs": [
        {
          "internalType": "uint256",
          "name": "",
          "type": "uint256"
        }
      ],
      "stateMutability": "view",
      "type": "function"
    },
    {
      "inputs": [
        {
          "internalType": "address",
          "name": "_owner",
          "type": "address"
        }
      ],
      "name": "getNumberOfDeposits",
      "outputs": [
        {
          "internalType": "uint256",
          "name": "",
          "type": "uint256"
        }
      ],
      "stateMutability": "view",
      "type": "function"
    },
    {
      "inputs": [
        {
          "internalType": "address",
          "name": "",
          "type": "address"
        }
      ],
      "name": "isDeposited",
      "outputs": [
        {
          "internalType": "bool",
          "name": "",
          "type": "bool"
        }
      ],
      "stateMutability": "view",
      "type": "function"
    },
    {
      "inputs": [],
      "name": "owner",
      "outputs": [
        {
          "internalType": "address",
          "name": "",
          "type": "address"
        }
      ],
      "stateMutability": "view",
      "type": "function"
    },
    {
      "inputs": [],
      "name": "pokePoint",
      "outputs": [
        {
          "internalType": "contract PokePoint",
          "name": "",
          "type": "address"
        }
      ],
      "stateMutability": "view",
      "type": "function"
    },
    {
      "inputs": [
        {
          "internalType": "address",
          "name": "",
          "type": "address"
        }
      ],
      "name": "pokePointBalance",
      "outputs": [
        {
          "internalType": "uint256",
          "name": "",
          "type": "uint256"
        }
      ],
      "stateMutability": "view",
      "type": "function"
    },
    {
      "inputs": [],
      "name": "pokemon",
      "outputs": [
        {
          "internalType": "contract ThunderDomeNFT",
          "name": "",
          "type": "address"
        }
      ],
      "stateMutability": "view",
      "type": "function"
    },
    {
      "inputs": [],
      "name": "returnPokePointsOwnership",
      "outputs": [],
      "stateMutability": "nonpayable",
      "type": "function"
    },
    {
      "inputs": [
        {
          "internalType": "address",
          "name": "",
          "type": "address"
        }
      ],
      "name": "startBlockNumber",
      "outputs": [
        {
          "internalType": "uint256",
          "name": "",
          "type": "uint256"
        }
      ],
      "stateMutability": "view",
      "type": "function"
    },
    {
      "inputs": [
        {
          "internalType": "uint256",
          "name": "_tokenId",
          "type": "uint256"
        }
      ],
      "name": "withdraw",
      "outputs": [],
      "stateMutability": "nonpayable",
      "type": "function"
    },
    {
      "inputs": [],
      "name": "withdrawYield",
      "outputs": [],
      "stateMutability": "nonpayable",
      "type": "function"
    }
  ],
  "bytecode": "0x60806040523480156200001157600080fd5b5060405162001c8638038062001c868339818101604052810190620000379190620001c4565b336000806101000a81548173ffffffffffffffffffffffffffffffffffffffff021916908373ffffffffffffffffffffffffffffffffffffffff16021790555081600560006101000a81548173ffffffffffffffffffffffffffffffffffffffff021916908373ffffffffffffffffffffffffffffffffffffffff16021790555080600660006101000a81548173ffffffffffffffffffffffffffffffffffffffff021916908373ffffffffffffffffffffffffffffffffffffffff16021790555050506200020b565b600080fd5b600073ffffffffffffffffffffffffffffffffffffffff82169050919050565b6000620001338262000106565b9050919050565b6000620001478262000126565b9050919050565b62000159816200013a565b81146200016557600080fd5b50565b60008151905062000179816200014e565b92915050565b60006200018c8262000126565b9050919050565b6200019e816200017f565b8114620001aa57600080fd5b50565b600081519050620001be8162000193565b92915050565b60008060408385031215620001de57620001dd62000101565b5b6000620001ee8582860162000168565b92505060206200020185828601620001ad565b9150509250929050565b611a6b806200021b6000396000f3fe608060405234801561001057600080fd5b50600436106100ea5760003560e01c80637a66d3b91161008c578063b6b55f2511610066578063b6b55f251461025f578063c2b3f4751461027b578063d71c713b146102ab578063e507a8a4146102db576100ea565b80637a66d3b9146102075780638da5cb5b14610211578063a0b700fe1461022f576100ea565b80634577f4c4116100c85780634577f4c41461015957806362cbabf614610189578063658ba11a146101a757806373732024146101d7576100ea565b806302a8455d146100ef5780632e1a7d4d1461011f578063362ff8ac1461013b575b600080fd5b6101096004803603810190610104919061131f565b6102e5565b6040516101169190611365565b60405180910390f35b610139600480360381019061013491906113ac565b610316565b005b6101436105f2565b6040516101509190611438565b60405180910390f35b610173600480360381019061016e9190611453565b610618565b6040516101809190611365565b60405180910390f35b610191610649565b60405161019e91906114b4565b60405180910390f35b6101c160048036038101906101bc919061131f565b61066f565b6040516101ce9190611365565b60405180910390f35b6101f160048036038101906101ec919061131f565b6106bb565b6040516101fe91906114ea565b60405180910390f35b61020f6106db565b005b610219610818565b6040516102269190611514565b60405180910390f35b6102496004803603810190610244919061131f565b61083c565b6040516102569190611365565b60405180910390f35b610279600480360381019061027491906113ac565b610854565b005b6102956004803603810190610290919061131f565b610c49565b6040516102a29190611365565b60405180910390f35b6102c560048036038101906102c0919061131f565b610c61565b6040516102d29190611365565b60405180910390f35b6102e3610cba565b005b60006102f08261066f565b60c86102fb84610c61565b610305919061155e565b61030f919061155e565b9050919050565b60011515600260003373ffffffffffffffffffffffffffffffffffffffff1673ffffffffffffffffffffffffffffffffffffffff16815260200190815260200160002060009054906101000a900460ff16151514801561037c575061037b3382610f5d565b5b6103bb576040517f08c379a00000000000000000000000000000000000000000000000000000000081526004016103b290611623565b60405180910390fd5b60006103c6336102e5565b905043600360003373ffffffffffffffffffffffffffffffffffffffff1673ffffffffffffffffffffffffffffffffffffffff16815260200190815260200160002081905550610416338361103a565b600660009054906101000a900473ffffffffffffffffffffffffffffffffffffffff1673ffffffffffffffffffffffffffffffffffffffff166323b872dd3033856040518463ffffffff1660e01b815260040161047593929190611643565b600060405180830381600087803b15801561048f57600080fd5b505af11580156104a3573d6000803e3d6000fd5b5050505080600460003373ffffffffffffffffffffffffffffffffffffffff1673ffffffffffffffffffffffffffffffffffffffff16815260200190815260200160002060008282546104f6919061167a565b925050819055506000600160003373ffffffffffffffffffffffffffffffffffffffff1673ffffffffffffffffffffffffffffffffffffffff16815260200190815260200160002080549050036105a0576000600260003373ffffffffffffffffffffffffffffffffffffffff1673ffffffffffffffffffffffffffffffffffffffff16815260200190815260200160002060006101000a81548160ff0219169083151502179055505b3373ffffffffffffffffffffffffffffffffffffffff167f7fcf532c15f0a6db0bd6d0e038bea71d30d808c7d98cb3bf7268a95bf5081b65836040516105e69190611365565b60405180910390a25050565b600660009054906101000a900473ffffffffffffffffffffffffffffffffffffffff1681565b6001602052816000526040600020818154811061063457600080fd5b90600052602060002001600091509150505481565b600560009054906101000a900473ffffffffffffffffffffffffffffffffffffffff1681565b6000600160008373ffffffffffffffffffffffffffffffffffffffff1673ffffffffffffffffffffffffffffffffffffffff168152602001908152602001600020805490509050919050565b60026020528060005260406000206000915054906101000a900460ff1681565b60008054906101000a900473ffffffffffffffffffffffffffffffffffffffff1673ffffffffffffffffffffffffffffffffffffffff163373ffffffffffffffffffffffffffffffffffffffff1614610769576040517f08c379a0000000000000000000000000000000000000000000000000000000008152600401610760906116fa565b60405180910390fd5b600560009054906101000a900473ffffffffffffffffffffffffffffffffffffffff1673ffffffffffffffffffffffffffffffffffffffff1663f2fde38b60008054906101000a900473ffffffffffffffffffffffffffffffffffffffff166040518263ffffffff1660e01b81526004016107e49190611514565b600060405180830381600087803b1580156107fe57600080fd5b505af1158015610812573d6000803e3d6000fd5b50505050565b60008054906101000a900473ffffffffffffffffffffffffffffffffffffffff1681565b60046020528060005260406000206000915090505481565b3373ffffffffffffffffffffffffffffffffffffffff16600660009054906101000a900473ffffffffffffffffffffffffffffffffffffffff1673ffffffffffffffffffffffffffffffffffffffff16636352211e836040518263ffffffff1660e01b81526004016108c69190611365565b602060405180830381865afa1580156108e3573d6000803e3d6000fd5b505050506040513d601f19601f82011682018060405250810190610907919061172f565b73ffffffffffffffffffffffffffffffffffffffff161461095d576040517f08c379a0000000000000000000000000000000000000000000000000000000008152600401610954906117a8565b60405180910390fd5b60066109683361066f565b106109a8576040517f08c379a000000000000000000000000000000000000000000000000000000000815260040161099f9061183a565b60405180910390fd5b60011515600260003373ffffffffffffffffffffffffffffffffffffffff1673ffffffffffffffffffffffffffffffffffffffff16815260200190815260200160002060009054906101000a900460ff16151503610a65576000610a0b336102e5565b905080600460003373ffffffffffffffffffffffffffffffffffffffff1673ffffffffffffffffffffffffffffffffffffffff1681526020019081526020016000206000828254610a5c919061167a565b92505081905550505b600660009054906101000a900473ffffffffffffffffffffffffffffffffffffffff1673ffffffffffffffffffffffffffffffffffffffff166323b872dd3330846040518463ffffffff1660e01b8152600401610ac493929190611643565b600060405180830381600087803b158015610ade57600080fd5b505af1158015610af2573d6000803e3d6000fd5b50505050600160003373ffffffffffffffffffffffffffffffffffffffff1673ffffffffffffffffffffffffffffffffffffffff16815260200190815260200160002081908060018154018082558091505060019003906000526020600020016000909190919091505543600360003373ffffffffffffffffffffffffffffffffffffffff1673ffffffffffffffffffffffffffffffffffffffff168152602001908152602001600020819055506001600260003373ffffffffffffffffffffffffffffffffffffffff1673ffffffffffffffffffffffffffffffffffffffff16815260200190815260200160002060006101000a81548160ff0219169083151502179055503373ffffffffffffffffffffffffffffffffffffffff167f2da466a7b24304f47e87fa2e1e5a81b9831ce54fec19055ce277ca2f39ba42c482604051610c3e9190611365565b60405180910390a250565b60036020528060005260406000206000915090505481565b600080439050600360008473ffffffffffffffffffffffffffffffffffffffff1673ffffffffffffffffffffffffffffffffffffffff1681526020019081526020016000205481610cb2919061185a565b915050919050565b6000610cc5336102e5565b90506000600460003373ffffffffffffffffffffffffffffffffffffffff1673ffffffffffffffffffffffffffffffffffffffff168152602001908152602001600020541180610d155750600081115b80610d6257506000600160003373ffffffffffffffffffffffffffffffffffffffff1673ffffffffffffffffffffffffffffffffffffffff16815260200190815260200160002080549050115b610da1576040517f08c379a0000000000000000000000000000000000000000000000000000000008152600401610d98906118da565b60405180910390fd5b6000600460003373ffffffffffffffffffffffffffffffffffffffff1673ffffffffffffffffffffffffffffffffffffffff1681526020019081526020016000205490506000600460003373ffffffffffffffffffffffffffffffffffffffff1673ffffffffffffffffffffffffffffffffffffffff168152602001908152602001600020819055508082610e36919061167a565b915043600360003373ffffffffffffffffffffffffffffffffffffffff1673ffffffffffffffffffffffffffffffffffffffff16815260200190815260200160002081905550600560009054906101000a900473ffffffffffffffffffffffffffffffffffffffff1673ffffffffffffffffffffffffffffffffffffffff166340c10f1933846040518363ffffffff1660e01b8152600401610ed99291906118fa565b600060405180830381600087803b158015610ef357600080fd5b505af1158015610f07573d6000803e3d6000fd5b505050503373ffffffffffffffffffffffffffffffffffffffff167f40fc6dd27523d1e5958375052d913c42f34325e9418e1d86b25f4b68413cccb883604051610f519190611365565b60405180910390a25050565b6000806000905060005b600160008673ffffffffffffffffffffffffffffffffffffffff1673ffffffffffffffffffffffffffffffffffffffff1681526020019081526020016000208054905081101561102f5783600160008773ffffffffffffffffffffffffffffffffffffffff1673ffffffffffffffffffffffffffffffffffffffff168152602001908152602001600020828154811061100357611002611923565b5b90600052602060002001540361101c576001915061102f565b808061102790611952565b915050610f67565b508091505092915050565b6000611084600160008573ffffffffffffffffffffffffffffffffffffffff1673ffffffffffffffffffffffffffffffffffffffff16815260200190815260200160002083611226565b905060008190505b60018060008673ffffffffffffffffffffffffffffffffffffffff1673ffffffffffffffffffffffffffffffffffffffff168152602001908152602001600020805490506110da919061185a565b8110156111bb57600160008573ffffffffffffffffffffffffffffffffffffffff1673ffffffffffffffffffffffffffffffffffffffff16815260200190815260200160002060018261112d919061167a565b8154811061113e5761113d611923565b5b9060005260206000200154600160008673ffffffffffffffffffffffffffffffffffffffff1673ffffffffffffffffffffffffffffffffffffffff168152602001908152602001600020828154811061119a57611199611923565b5b906000526020600020018190555080806111b390611952565b91505061108c565b50600160008473ffffffffffffffffffffffffffffffffffffffff1673ffffffffffffffffffffffffffffffffffffffff16815260200190815260200160002080548061120b5761120a61199a565b5b60019003818190600052602060002001600090559055505050565b600080600090505b838054905081101561127a578284828154811061124e5761124d611923565b5b90600052602060002001540361126757809150506112b6565b808061127290611952565b91505061122e565b506040517f08c379a00000000000000000000000000000000000000000000000000000000081526004016112ad90611a15565b60405180910390fd5b92915050565b600080fd5b600073ffffffffffffffffffffffffffffffffffffffff82169050919050565b60006112ec826112c1565b9050919050565b6112fc816112e1565b811461130757600080fd5b50565b600081359050611319816112f3565b92915050565b600060208284031215611335576113346112bc565b5b60006113438482850161130a565b91505092915050565b6000819050919050565b61135f8161134c565b82525050565b600060208201905061137a6000830184611356565b92915050565b6113898161134c565b811461139457600080fd5b50565b6000813590506113a681611380565b92915050565b6000602082840312156113c2576113c16112bc565b5b60006113d084828501611397565b91505092915050565b6000819050919050565b60006113fe6113f96113f4846112c1565b6113d9565b6112c1565b9050919050565b6000611410826113e3565b9050919050565b600061142282611405565b9050919050565b61143281611417565b82525050565b600060208201905061144d6000830184611429565b92915050565b6000806040838503121561146a576114696112bc565b5b60006114788582860161130a565b925050602061148985828601611397565b9150509250929050565b600061149e82611405565b9050919050565b6114ae81611493565b82525050565b60006020820190506114c960008301846114a5565b92915050565b60008115159050919050565b6114e4816114cf565b82525050565b60006020820190506114ff60008301846114db565b92915050565b61150e816112e1565b82525050565b60006020820190506115296000830184611505565b92915050565b7f4e487b7100000000000000000000000000000000000000000000000000000000600052601160045260246000fd5b60006115698261134c565b91506115748361134c565b92508282026115828161134c565b915082820484148315176115995761159861152f565b5b5092915050565b600082825260208201905092915050565b7f596f7520646f6e27742068617665207468617420706f6b656d6f6e20746f207760008201527f6974686472617700000000000000000000000000000000000000000000000000602082015250565b600061160d6027836115a0565b9150611618826115b1565b604082019050919050565b6000602082019050818103600083015261163c81611600565b9050919050565b60006060820190506116586000830186611505565b6116656020830185611505565b6116726040830184611356565b949350505050565b60006116858261134c565b91506116908361134c565b92508282019050808211156116a8576116a761152f565b5b92915050565b7f4f6e6c79206f776e65722063616e2063616c6c20746869730000000000000000600082015250565b60006116e46018836115a0565b91506116ef826116ae565b602082019050919050565b60006020820190508181036000830152611713816116d7565b9050919050565b600081519050611729816112f3565b92915050565b600060208284031215611745576117446112bc565b5b60006117538482850161171a565b91505092915050565b7f596f7520646f206e6f74206f776e207468617420506f6b656d6f6e0000000000600082015250565b6000611792601b836115a0565b915061179d8261175c565b602082019050919050565b600060208201905081810360008301526117c181611785565b9050919050565b7f596f752063616e206465706f736974206f6e6c7920757020746f20736978207060008201527f6f6b656d6f6e0000000000000000000000000000000000000000000000000000602082015250565b60006118246026836115a0565b915061182f826117c8565b604082019050919050565b6000602082019050818103600083015261185381611817565b9050919050565b60006118658261134c565b91506118708361134c565b92508282039050818111156118885761188761152f565b5b92915050565b7f596f752068617665206e6f7468696e6720746f20776974686472617700000000600082015250565b60006118c4601c836115a0565b91506118cf8261188e565b602082019050919050565b600060208201905081810360008301526118f3816118b7565b9050919050565b600060408201905061190f6000830185611505565b61191c6020830184611356565b9392505050565b7f4e487b7100000000000000000000000000000000000000000000000000000000600052603260045260246000fd5b600061195d8261134c565b91507fffffffffffffffffffffffffffffffffffffffffffffffffffffffffffffffff820361198f5761198e61152f565b5b600182019050919050565b7f4e487b7100000000000000000000000000000000000000000000000000000000600052603160045260246000fd5b7f506f6b656d6f6e206e6f7420666f756e64000000000000000000000000000000600082015250565b60006119ff6011836115a0565b9150611a0a826119c9565b602082019050919050565b60006020820190508181036000830152611a2e816119f2565b905091905056fea26469706673582212209cd74393fe092c3a6c1a6310a6151875141c25bf34514816293a34d8b5b636c264736f6c63430008110033",
  "linkReferences": {},
  "deployedLinkReferences": {}
}