{
  "_format": "hh-sol-artifact-1",
  "contractName": "CharacterSkin",
  "sourceName": "contracts/nfts/CharacterSkin.sol",
  "abi": [
    {
      "inputs": [],
      "stateMutability": "nonpayable",
      "type": "constructor"
    },
    {
      "inputs": [],
      "name": "TokenIDInUse",
      "type": "error"
    },
    {
      "inputs": [],
      "name": "TokenIDNotInUse",
      "type": "error"
    },
    {
      "anonymous": false,
      "inputs": [
        {
          "indexed": true,
          "internalType": "address",
          "name": "account",
          "type": "address"
        },
        {
          "indexed": true,
          "internalType": "address",
          "name": "operator",
          "type": "address"
        },
        {
          "indexed": false,
          "internalType": "bool",
          "name": "approved",
          "type": "bool"
        }
      ],
      "name": "ApprovalForAll",
      "type": "event"
    },
    {
      "anonymous": false,
      "inputs": [
        {
          "indexed": false,
          "internalType": "address",
          "name": "account",
          "type": "address"
        }
      ],
      "name": "Paused",
      "type": "event"
    },
    {
      "anonymous": false,
      "inputs": [
        {
          "indexed": true,
          "internalType": "bytes32",
          "name": "role",
          "type": "bytes32"
        },
        {
          "indexed": true,
          "internalType": "bytes32",
          "name": "previousAdminRole",
          "type": "bytes32"
        },
        {
          "indexed": true,
          "internalType": "bytes32",
          "name": "newAdminRole",
          "type": "bytes32"
        }
      ],
      "name": "RoleAdminChanged",
      "type": "event"
    },
    {
      "anonymous": false,
      "inputs": [
        {
          "indexed": true,
          "internalType": "bytes32",
          "name": "role",
          "type": "bytes32"
        },
        {
          "indexed": true,
          "internalType": "address",
          "name": "account",
          "type": "address"
        },
        {
          "indexed": true,
          "internalType": "address",
          "name": "sender",
          "type": "address"
        }
      ],
      "name": "RoleGranted",
      "type": "event"
    },
    {
      "anonymous": false,
      "inputs": [
        {
          "indexed": true,
          "internalType": "bytes32",
          "name": "role",
          "type": "bytes32"
        },
        {
          "indexed": true,
          "internalType": "address",
          "name": "account",
          "type": "address"
        },
        {
          "indexed": true,
          "internalType": "address",
          "name": "sender",
          "type": "address"
        }
      ],
      "name": "RoleRevoked",
      "type": "event"
    },
    {
      "anonymous": false,
      "inputs": [
        {
          "indexed": true,
          "internalType": "uint256",
          "name": "tokenId",
          "type": "uint256"
        },
        {
          "indexed": false,
          "internalType": "string",
          "name": "tokenName",
          "type": "string"
        }
      ],
      "name": "TokenIDAdded",
      "type": "event"
    },
    {
      "anonymous": false,
      "inputs": [
        {
          "indexed": true,
          "internalType": "address",
          "name": "operator",
          "type": "address"
        },
        {
          "indexed": true,
          "internalType": "address",
          "name": "from",
          "type": "address"
        },
        {
          "indexed": true,
          "internalType": "address",
          "name": "to",
          "type": "address"
        },
        {
          "indexed": false,
          "internalType": "uint256[]",
          "name": "ids",
          "type": "uint256[]"
        },
        {
          "indexed": false,
          "internalType": "uint256[]",
          "name": "values",
          "type": "uint256[]"
        }
      ],
      "name": "TransferBatch",
      "type": "event"
    },
    {
      "anonymous": false,
      "inputs": [
        {
          "indexed": true,
          "internalType": "address",
          "name": "operator",
          "type": "address"
        },
        {
          "indexed": true,
          "internalType": "address",
          "name": "from",
          "type": "address"
        },
        {
          "indexed": true,
          "internalType": "address",
          "name": "to",
          "type": "address"
        },
        {
          "indexed": false,
          "internalType": "uint256",
          "name": "id",
          "type": "uint256"
        },
        {
          "indexed": false,
          "internalType": "uint256",
          "name": "value",
          "type": "uint256"
        }
      ],
      "name": "TransferSingle",
      "type": "event"
    },
    {
      "anonymous": false,
      "inputs": [
        {
          "indexed": false,
          "internalType": "string",
          "name": "value",
          "type": "string"
        },
        {
          "indexed": true,
          "internalType": "uint256",
          "name": "id",
          "type": "uint256"
        }
      ],
      "name": "URI",
      "type": "event"
    },
    {
      "anonymous": false,
      "inputs": [
        {
          "indexed": false,
          "internalType": "address",
          "name": "account",
          "type": "address"
        }
      ],
      "name": "Unpaused",
      "type": "event"
    },
    {
      "inputs": [],
      "name": "DEFAULT_ADMIN_ROLE",
      "outputs": [
        {
          "internalType": "bytes32",
          "name": "",
          "type": "bytes32"
        }
      ],
      "stateMutability": "view",
      "type": "function"
    },
    {
      "inputs": [],
      "name": "MINTER_ROLE",
      "outputs": [
        {
          "internalType": "bytes32",
          "name": "",
          "type": "bytes32"
        }
      ],
      "stateMutability": "view",
      "type": "function"
    },
    {
      "inputs": [],
      "name": "PAUSER_ROLE",
      "outputs": [
        {
          "internalType": "bytes32",
          "name": "",
          "type": "bytes32"
        }
      ],
      "stateMutability": "view",
      "type": "function"
    },
    {
      "inputs": [],
      "name": "SETTER_ROLE",
      "outputs": [
        {
          "internalType": "bytes32",
          "name": "",
          "type": "bytes32"
        }
      ],
      "stateMutability": "view",
      "type": "function"
    },
    {
      "inputs": [
        {
          "internalType": "uint256",
          "name": "_tokenId",
          "type": "uint256"
        },
        {
          "internalType": "string",
          "name": "_tokenName",
          "type": "string"
        }
      ],
      "name": "addToken",
      "outputs": [],
      "stateMutability": "nonpayable",
      "type": "function"
    },
    {
      "inputs": [
        {
          "internalType": "address",
          "name": "account",
          "type": "address"
        },
        {
          "internalType": "uint256",
          "name": "id",
          "type": "uint256"
        }
      ],
      "name": "balanceOf",
      "outputs": [
        {
          "internalType": "uint256",
          "name": "",
          "type": "uint256"
        }
      ],
      "stateMutability": "view",
      "type": "function"
    },
    {
      "inputs": [
        {
          "internalType": "address[]",
          "name": "accounts",
          "type": "address[]"
        },
        {
          "internalType": "uint256[]",
          "name": "ids",
          "type": "uint256[]"
        }
      ],
      "name": "balanceOfBatch",
      "outputs": [
        {
          "internalType": "uint256[]",
          "name": "",
          "type": "uint256[]"
        }
      ],
      "stateMutability": "view",
      "type": "function"
    },
    {
      "inputs": [
        {
          "internalType": "address",
          "name": "account",
          "type": "address"
        },
        {
          "internalType": "uint256",
          "name": "id",
          "type": "uint256"
        },
        {
          "internalType": "uint256",
          "name": "value",
          "type": "uint256"
        }
      ],
      "name": "burn",
      "outputs": [],
      "stateMutability": "nonpayable",
      "type": "function"
    },
    {
      "inputs": [
        {
          "internalType": "address",
          "name": "account",
          "type": "address"
        },
        {
          "internalType": "uint256[]",
          "name": "ids",
          "type": "uint256[]"
        },
        {
          "internalType": "uint256[]",
          "name": "values",
          "type": "uint256[]"
        }
      ],
      "name": "burnBatch",
      "outputs": [],
      "stateMutability": "nonpayable",
      "type": "function"
    },
    {
      "inputs": [
        {
          "internalType": "bytes32",
          "name": "role",
          "type": "bytes32"
        }
      ],
      "name": "getRoleAdmin",
      "outputs": [
        {
          "internalType": "bytes32",
          "name": "",
          "type": "bytes32"
        }
      ],
      "stateMutability": "view",
      "type": "function"
    },
    {
      "inputs": [
        {
          "internalType": "bytes32",
          "name": "role",
          "type": "bytes32"
        },
        {
          "internalType": "address",
          "name": "account",
          "type": "address"
        }
      ],
      "name": "grantRole",
      "outputs": [],
      "stateMutability": "nonpayable",
      "type": "function"
    },
    {
      "inputs": [
        {
          "internalType": "bytes32",
          "name": "role",
          "type": "bytes32"
        },
        {
          "internalType": "address",
          "name": "account",
          "type": "address"
        }
      ],
      "name": "hasRole",
      "outputs": [
        {
          "internalType": "bool",
          "name": "",
          "type": "bool"
        }
      ],
      "stateMutability": "view",
      "type": "function"
    },
    {
      "inputs": [
        {
          "internalType": "address",
          "name": "account",
          "type": "address"
        },
        {
          "internalType": "address",
          "name": "operator",
          "type": "address"
        }
      ],
      "name": "isApprovedForAll",
      "outputs": [
        {
          "internalType": "bool",
          "name": "",
          "type": "bool"
        }
      ],
      "stateMutability": "view",
      "type": "function"
    },
    {
      "inputs": [
        {
          "internalType": "address",
          "name": "_account",
          "type": "address"
        },
        {
          "internalType": "uint256",
          "name": "_id",
          "type": "uint256"
        },
        {
          "internalType": "uint256",
          "name": "_amount",
          "type": "uint256"
        },
        {
          "internalType": "bytes",
          "name": "_data",
          "type": "bytes"
        }
      ],
      "name": "mint",
      "outputs": [],
      "stateMutability": "nonpayable",
      "type": "function"
    },
    {
      "inputs": [
        {
          "internalType": "address",
          "name": "_to",
          "type": "address"
        },
        {
          "internalType": "uint256[]",
          "name": "_ids",
          "type": "uint256[]"
        },
        {
          "internalType": "uint256[]",
          "name": "_amounts",
          "type": "uint256[]"
        },
        {
          "internalType": "bytes",
          "name": "_data",
          "type": "bytes"
        }
      ],
      "name": "mintBatch",
      "outputs": [],
      "stateMutability": "nonpayable",
      "type": "function"
    },
    {
      "inputs": [],
      "name": "name",
      "outputs": [
        {
          "internalType": "string",
          "name": "",
          "type": "string"
        }
      ],
      "stateMutability": "view",
      "type": "function"
    },
    {
      "inputs": [],
      "name": "pause",
      "outputs": [],
      "stateMutability": "nonpayable",
      "type": "function"
    },
    {
      "inputs": [],
      "name": "paused",
      "outputs": [
        {
          "internalType": "bool",
          "name": "",
          "type": "bool"
        }
      ],
      "stateMutability": "view",
      "type": "function"
    },
    {
      "inputs": [
        {
          "internalType": "bytes32",
          "name": "role",
          "type": "bytes32"
        },
        {
          "internalType": "address",
          "name": "account",
          "type": "address"
        }
      ],
      "name": "renounceRole",
      "outputs": [],
      "stateMutability": "nonpayable",
      "type": "function"
    },
    {
      "inputs": [
        {
          "internalType": "bytes32",
          "name": "role",
          "type": "bytes32"
        },
        {
          "internalType": "address",
          "name": "account",
          "type": "address"
        }
      ],
      "name": "revokeRole",
      "outputs": [],
      "stateMutability": "nonpayable",
      "type": "function"
    },
    {
      "inputs": [
        {
          "internalType": "address",
          "name": "from",
          "type": "address"
        },
        {
          "internalType": "address",
          "name": "to",
          "type": "address"
        },
        {
          "internalType": "uint256[]",
          "name": "ids",
          "type": "uint256[]"
        },
        {
          "internalType": "uint256[]",
          "name": "amounts",
          "type": "uint256[]"
        },
        {
          "internalType": "bytes",
          "name": "data",
          "type": "bytes"
        }
      ],
      "name": "safeBatchTransferFrom",
      "outputs": [],
      "stateMutability": "nonpayable",
      "type": "function"
    },
    {
      "inputs": [
        {
          "internalType": "address",
          "name": "from",
          "type": "address"
        },
        {
          "internalType": "address",
          "name": "to",
          "type": "address"
        },
        {
          "internalType": "uint256",
          "name": "id",
          "type": "uint256"
        },
        {
          "internalType": "uint256",
          "name": "amount",
          "type": "uint256"
        },
        {
          "internalType": "bytes",
          "name": "data",
          "type": "bytes"
        }
      ],
      "name": "safeTransferFrom",
      "outputs": [],
      "stateMutability": "nonpayable",
      "type": "function"
    },
    {
      "inputs": [
        {
          "internalType": "address",
          "name": "operator",
          "type": "address"
        },
        {
          "internalType": "bool",
          "name": "approved",
          "type": "bool"
        }
      ],
      "name": "setApprovalForAll",
      "outputs": [],
      "stateMutability": "nonpayable",
      "type": "function"
    },
    {
      "inputs": [
        {
          "internalType": "string",
          "name": "_newURI",
          "type": "string"
        }
      ],
      "name": "setURI",
      "outputs": [],
      "stateMutability": "nonpayable",
      "type": "function"
    },
    {
      "inputs": [
        {
          "internalType": "bytes4",
          "name": "_interfaceId",
          "type": "bytes4"
        }
      ],
      "name": "supportsInterface",
      "outputs": [
        {
          "internalType": "bool",
          "name": "",
          "type": "bool"
        }
      ],
      "stateMutability": "view",
      "type": "function"
    },
    {
      "inputs": [
        {
          "internalType": "uint256",
          "name": "",
          "type": "uint256"
        }
      ],
      "name": "tokens",
      "outputs": [
        {
          "internalType": "string",
          "name": "",
          "type": "string"
        }
      ],
      "stateMutability": "view",
      "type": "function"
    },
    {
      "inputs": [],
      "name": "unpause",
      "outputs": [],
      "stateMutability": "nonpayable",
      "type": "function"
    },
    {
      "inputs": [
        {
          "internalType": "uint256",
          "name": "",
          "type": "uint256"
        }
      ],
      "name": "uri",
      "outputs": [
        {
          "internalType": "string",
          "name": "",
          "type": "string"
        }
      ],
      "stateMutability": "view",
      "type": "function"
    }
  ],
  "bytecode": "0x608034620002b3576020818101916001600160401b038311818410176200029d576040928352600080915262000037600254620002b8565b601f81116200027b575b508060025560ff1980600454166004556200005e600554620002b8565b601f811162000258575b5060267f5859332043686172616374657220536b696e730000000000000000000000000001600555818052600392838152848320338452815260ff85842054161562000222575b7f61c92169ef077349011ff0b1383c894d86c5f0b41d986366b58a6cf31e93beda808452848252858420338552825260ff868520541615620001ea575b507f65d7a28e3265b37a6474929f336521b332c1681b933f6cb9f3376673440d862a808452848252858420338552825260ff868520541615620001b2575b507f9f2df0fed2c77648de5860a4cc508cd0818c85b8b8a1ab4ceeef8d981c8956a693848452808252858420338552825260ff86852054161562000178575b8551612b3390816200030f8239f35b84845281528483209033845252600184832091825416179055339160008051602062002e42833981519152339280a4388080808062000169565b80845284825285842033855282528584206001848254161790553390339060008051602062002e428339815191528680a4386200012a565b80845284825285842033855282528584206001848254161790553390339060008051602062002e428339815191528680a438620000ec565b828052838152848320338452815284832060018382541617905533338460008051602062002e428339815191528180a4620000af565b620002749060058452601f858520910160051c810190620002f5565b3862000068565b600282528282206200029691601f0160051c810190620002f5565b3862000041565b634e487b7160e01b600052604160045260246000fd5b600080fd5b90600182811c92168015620002ea575b6020831014620002d457565b634e487b7160e01b600052602260045260246000fd5b91607f1691620002c8565b81811062000301575050565b60008155600101620002f556fe6040608081526004908136101561001557600080fd5b600091823560e01c908162fdd58e14611cb557816301ffc9a714611c2a57816302fe530514611a8f57816306fdde03146119aa5781630e89341c146118cf5781631f7fdffa146115d9578163248a9ca3146115ae5781632b54c3ce146113295781632eb2c2d6146110785781632f2ff15d14610fcb57816336568abe14610f395781633f4ba83a14610ea75781634e1273f414610d0a5781634f64b2be14610c2d5781635c975abb14610c0a5781636b20c45414610aa0578163731133e91461083c5781638456cb59146107e257816391d148541461079b578163a2011b3f14610760578163a217fddf14610745578163a22cb46514610667578163d53913931461062c578163d547741f146105f0578163e63ab1e9146105b5578163e985e9c514610567578163f242432a1461025b575063f5298aca1461015657600080fd5b34610257576060366003190112610257576102359082610174611ce5565b6001600160a01b03166024356044353383148015610238575b61019690612608565b6101a1831515612894565b6101aa8261285f565b506101b48161285f565b508385516101c181611d16565b526101ca612ab9565b8184528360205284842083855260205280858520546101eb828210156128ec565b838652856020528686208587526020520385852055845191825260208201527fc3d58168c5ae7397731d063d5bbf3d657854427343f4c083240f7aacaa2d0f62843392a451611d16565b80f35b508284526001602090815285852033865290528484205460ff1661018d565b5080fd5b919050346105635760a036600319011261056357610277611ce5565b83610280611d00565b91604435906064356084356001600160401b03811161055f576102a69036908901611ec0565b926001600160a01b03928316923384148015610540575b6102c690612608565b8616906102d482151561266b565b6102dd8161285f565b506102e78361285f565b506102f0612ab9565b80865260209686885288872085885288528389882054610312828210156126c5565b838952888a528a8920878a528a5203898820558187528688528887208388528852888720610341858254612724565b905582858a51848152868b8201527fc3d58168c5ae7397731d063d5bbf3d657854427343f4c083240f7aacaa2d0f628c3392a43b61037d578580f35b889587946103be8a519788968795869463f23a6e6160e01b9c8d8752339087015260248601526044850152606484015260a0608484015260a4830190611e26565b03925af1869181610511575b5061049c5750506001906103dc6127d3565b6308c379a014610469575b506103fc5750505b3880808381808080808580f35b5162461bcd60e51b81529150819061046590820160809060208152603460208201527f455243313135353a207472616e7366657220746f206e6f6e2d455243313135356040820152732932b1b2b4bb32b91034b6b83632b6b2b73a32b960611b60608201520190565b0390fd5b6104716127f1565b8061047c57506103e7565b6104658591855193849362461bcd60e51b85528401526024830190611e26565b6001600160e01b0319160390506104b45750506103ef565b5162461bcd60e51b81529150819061046590820160809060208152602860208201527f455243313135353a204552433131353552656365697665722072656a656374656040820152676420746f6b656e7360c01b60608201520190565b610532919250843d8611610539575b61052a8183611d62565b8101906127b3565b90386103ca565b503d610520565b508386526001602090815288872033885290528786205460ff166102bd565b8480fd5b8280fd5b50503461025757806003193601126102575760ff81602093610587611ce5565b61058f611d00565b6001600160a01b0391821683526001875283832091168252855220549151911615158152f35b505034610257578160031936011261025757602090517f65d7a28e3265b37a6474929f336521b332c1681b933f6cb9f3376673440d862a8152f35b9190503461056357806003193601126105635761023591356106276001610615611d00565b938387526003602052862001546123b3565b6124be565b505034610257578160031936011261025757602090517f9f2df0fed2c77648de5860a4cc508cd0818c85b8b8a1ab4ceeef8d981c8956a68152f35b91905034610563578060031936011261056357610682611ce5565b906024359182151580930361055f576001600160a01b0316923384146106f15750338452600160205280842083855260205280842060ff1981541660ff8416179055519081527f17307eab39ab6107e8899845ad3d59bd9653f200f220920489ca2b5937696c3160203392a380f35b6020608492519162461bcd60e51b8352820152602960248201527f455243313135353a2073657474696e6720617070726f76616c20737461747573604482015268103337b91039b2b63360b91b6064820152fd5b50503461025757816003193601126102575751908152602090f35b505034610257578160031936011261025757602090517f61c92169ef077349011ff0b1383c894d86c5f0b41d986366b58a6cf31e93beda8152f35b9050346105635781600319360112610563578160209360ff926107bc611d00565b90358252600386528282206001600160a01b039091168252855220549151911615158152f35b9050346105635782600319360112610563577f62e78cea01bee320cd4e420270b5ea74000d11b0c9f74754ebdbfc544b05a2589160209161082161226e565b610829612ab9565b805460ff1916600117905551338152a180f35b9190503461056357608036600319011261056357610858611ce5565b602435906044356064356001600160401b038111610a9c5761087d9036908701611ec0565b92610886612129565b808752602093600685528588209386518995818154976108a589611dc9565b928383526001998b8b82169182600014610a7c575050600114610a3f575b506108d092500382611d62565b5115610a2f57889291906001600160a01b038116906108f0821515612a63565b6108f98461285f565b506109038661285f565b5061090c612ab9565b8385528488528885208286528852888520610928878254612724565b905581858a51868152888b8201527fc3d58168c5ae7397731d063d5bbf3d657854427343f4c083240f7aacaa2d0f628c3392a43b610964578380f35b88946109a79488948a519687958694859363f23a6e6160e01b9b8c865233908601528560248601526044850152606484015260a0608484015260a4830190611e26565b03925af1879181610a10575b506109f6575050906109c36127d3565b6308c379a0146109e3575b506103fc5750505b3880808080858180808380f35b6109eb6127f1565b8061047c57506109ce565b6001600160e01b0319160391506104b490505750506109d6565b610a28919250853d87116105395761052a8183611d62565b90386109b3565b8651630e93816560e11b81528890fd5b9150508b5281888c898282205b858310610a635750506108d09350820101386108c3565b8091929450548385880101520191018990898593610a4c565b60ff1916858201526108d095151560051b85010192503891506108c39050565b8680fd5b90508234610c07576060366003190112610c0757610abc611ce5565b926001600160401b0392602435848111610c0357610add9036908301611e62565b93604435908111610c0357610af491369101611e62565b936001600160a01b03163381148015610be4575b610b1190612608565b610b1c811515612894565b610b298451865114612731565b828251610b3581611d16565b52610b3e612ab9565b825b8451811015610ba15780610b57610b9c92876125de565b51610b6282896125de565b5190808752602087815286882086895281528688205491610b85848410156128ec565b8852878152868820908689525203848620556125b9565b610b40565b50916102359281947f4a39dc06d4c0dbc64b70af90fd698a233a518aa5d07e595d983b8c0526c8f7fb610bdb88865191829133958361278e565b0390a451611d16565b508083526001602090815282842033855290528183205460ff16610b08565b8380fd5b80fd5b828434610c075780600319360112610c07575060ff602092541690519015158152f35b919050346105635760209182600319360112610c035735835260068252808320815193849181815490610c5f82611dc9565b92838652600192888482169182600014610ce0575050600114610ca2575b8588610c9e89610c8f848a0385611d62565b51928284938452830190611e26565b0390f35b87945081939291528383205b828410610cc85750505082010181610c8f610c9e38610c7d565b8054848a018601528895508794909301928101610cae565b60ff19168882015294151560051b87019094019450859350610c8f9250610c9e9150389050610c7d565b90503461056357816003193601126105635780356001600160401b0380821161055f573660238301121561055f578183013590610d4682611e4b565b92610d5386519485611d62565b82845260209260248486019160051b83010191368311610ea357602401905b828210610e8057505050602435908111610e7c57610d939036908501611e62565b928251845103610e295750815194610daa86611e4b565b95610db786519788611d62565b808752610dc6601f1991611e4b565b0136838801375b8251811015610e1757610e1290610e026001600160a01b03610def83876125de565b5116610dfb83886125de565b5190612534565b610e0c82896125de565b526125b9565b610dcd565b845182815280610c9e81850189611ede565b60849185519162461bcd60e51b8352820152602960248201527f455243313135353a206163636f756e747320616e6420696473206c656e677468604482015268040dad2e6dac2e8c6d60bb1b6064820152fd5b8580fd5b81356001600160a01b0381168103610e9f578152908401908401610d72565b8980fd5b8880fd5b905034610563578260031936011261056357610ec161226e565b805460ff811615610eff5760ff19169055513381527f5db9ee0a495bf2e6ff9c91a7834c1ba4fdd244a5e8aa4e537bd38aeae4b073aa90602090a180f35b506020606492519162461bcd60e51b8352820152601460248201527314185d5cd8589b194e881b9bdd081c185d5cd95960621b6044820152fd5b83915034610257578260031936011261025757610f54611d00565b90336001600160a01b03831603610f70579061023591356124be565b608490602085519162461bcd60e51b8352820152602f60248201527f416363657373436f6e74726f6c3a2063616e206f6e6c792072656e6f756e636560448201526e103937b632b9903337b91039b2b63360891b6064820152fd5b9050346105635781600319360112610563573590610fe7611d00565b908284526003602052610fff600182862001546123b3565b828452600360209081528185206001600160a01b039093168086529290528084205460ff161561102d578380f35b82845260036020528084208285526020528320600160ff1982541617905533917f2f8788117e7eff1d82e926ec794901d17c78024a50270940304540a733656f0d8480a43880808380f35b905034610563576003199160a036840112610c0357611095611ce5565b9261109e611d00565b936001600160401b0393604435858111611325576110bf9036908301611e62565b90606435868111610ea3576110d79036908301611e62565b95608435908111610ea3576110ef9036908301611ec0565b936001600160a01b03938416933385148015611306575b61110f90612608565b61111c8451895114612731565b88169461112a86151561266b565b611132612ab9565b895b8a85518210156111b85790896111ac8a6111b39461115d85611156818d6125de565b51956125de565b51938082526020908282528383208d84528252858d8585205490611183838310156126c5565b838652858552868620908652845203848420558252818152828220908d83525220918254612724565b90556125b9565b611134565b50509094939596929197848789517f4a39dc06d4c0dbc64b70af90fd698a233a518aa5d07e595d983b8c0526c8f7fb3391806111f58a8a8361278e565b0390a43b611201578880f35b8651948593849363bc197c8160e01b98898652338c87015260248601526044850160a0905260a4850161123391611ede565b8285820301606486015261124691611ede565b9083820301608484015261125991611e26565b0381885a94602095f18591816112e6575b506112d0575050600161127b6127d3565b6308c379a014611299575b6103fc5750505b38808080808080808880f35b6112a16127f1565b806112ac5750611286565b905061046591602094505193849362461bcd60e51b85528401526024830190611e26565b6001600160e01b031916036104b457505061128d565b6112ff91925060203d81116105395761052a8183611d62565b903861126a565b50848a5260016020908152878b20338c529052868a205460ff16611106565b8780fd5b8383346102575780600319360112610257578235906024908135946001600160401b0392838711610e7c5736602388011215610e7c5786820135938411610e7c5736818589010111610e7c5761137d611f12565b848652602096879260068452848820855190818a82549261139d84611dc9565b9384845260019e8f8216918260001461158e575050600114611550575b506113c792500382611d62565b516115425750858752600683528387206113e18154611dc9565b601f81116114fc575b5087601f87116001146114725791839187808b9c819782977ffe5678d4d55b8f771c1d73639eda52c1cb5080a1416187bde7594d5698d52dab9d9e94611465575b50501b906000198660031b1c19161790555b855196858896875286015201848401378181018301879052601f01601f19168101030190a280f35b860101359250858f61142b565b98601f198716828a52858a20908a5b8181106114e5575091889593917ffe5678d4d55b8f771c1d73639eda52c1cb5080a1416187bde7594d5698d52dab9a9b9c87809795106114c9575b505084811b01905561143d565b8401850135600019600388901b60f8161c191690558c806114bc565b858d0187013583559b87019b918301918701611481565b818952848920601f880160051c810191868910611538575b601f0160051c01908a905b82811061152d5750506113ea565b8a8155018a9061151f565b9091508190611514565b8451630f6793e760e11b8152fd5b9150508a528186808c208d8d915b8583106115755750506113c793508201018d6113ba565b80919294505483858801015201910187908d859361155e565b60ff1916858201526113c795151560051b85010192508f91506113ba9050565b9050346105635760203660031901126105635781602093600192358152600385522001549051908152f35b8383346102575760031991608036840112610c07576115f6611ce5565b926001600160401b03602435818111610c03576116169036908801611e62565b9560443582811161055f5761162e9036908301611e62565b9160643590811161055f576116469036908301611ec0565b61164e612129565b8751855b8181106117f85750506001600160a01b03871693611671851515612a63565b61167e8951855114612731565b611686612ab9565b855b89518110156116cd578061169f6116c892876125de565b516116aa828d6125de565b51895260208981528a8a2090898b52526111ac8a8a20918254612724565b611688565b5085989491939297828789517f4a39dc06d4c0dbc64b70af90fd698a233a518aa5d07e595d983b8c0526c8f7fb3391806117088a8d8361278e565b0390a43b611714578580f35b879561176595611774611755936020978b51998a988997889663bc197c8160e01b9e8f8952339089015288602489015260a0604489015260a4880190611ede565b9084878303016064880152611ede565b91848303016084850152611e26565b03925af18591816117d8575b506117c257505060016117916127d3565b6308c379a0146117af575b6103fc5750505b81808281808080808580f35b6117b76127f1565b806112ac575061179c565b6001600160e01b031916036104b45750506117a3565b6117f191925060203d81116105395761052a8183611d62565b9086611780565b611802818b6125de565b51875260206006815288882090895180928a9080549061182182611dc9565b9081855260019283811690816000146118ac5750600114611870575b50505061184c92500382611d62565b51156118605761185b906125b9565b611652565b8751630e93816560e11b81528490fd5b8d52848d208d93509091905b828410611896575050509161184c928201018e808061183d565b805487850187015286945092850192810161187c565b929350505061184c94925060ff191682840152151560051b8201018e808061183d565b5050346102575760209081600319360112610563578051838194906002546118f681611dc9565b91828552600191878382169182600014611983575050600114611927575b505050610c9e9291610c8f910385611d62565b9190869350600283527f405787fa12a823e0f2b7631cc41b3ba8828b3321ca811111fa75cd3aa3bb5ace5b82841061196b5750505082010181610c8f610c9e611914565b8054848a018601528895508794909301928101611952565b60ff19168782015293151560051b86019093019350849250610c8f9150610c9e9050611914565b505034610257578160031936011261025757805190826005546119cc81611dc9565b80855291600191808316908115611a675750600114611a0a575b5050506119f882610c9e940383611d62565b51918291602083526020830190611e26565b9450600585527f036b6384b5eca791c62761152d0c79bb0604c104a5fb6f4eb0703f3154bb3db05b828610611a4f575050506119f8826020610c9e95820101946119e6565b80546020878701810191909152909501948101611a32565b610c9e9750869350602092506119f894915060ff191682840152151560051b820101946119e6565b8334610c0757602080600319360112610257576001600160401b03908335828111610c035736602382011215610c0357611ad29036906024818801359101611d83565b93611adb611f12565b8451928311611c175750611af0600254611dc9565b601f8111611bb5575b5080601f8311600114611b3457508293829392611b29575b50508160011b916000199060031b1c19161760025580f35b015190508380611b11565b60028452601f198316947f405787fa12a823e0f2b7631cc41b3ba8828b3321ca811111fa75cd3aa3bb5ace929185905b878210611b9d575050836001959610611b84575b505050811b0160025580f35b015160001960f88460031b161c19169055838080611b78565b80600185968294968601518155019501930190611b64565b600284527f405787fa12a823e0f2b7631cc41b3ba8828b3321ca811111fa75cd3aa3bb5ace601f840160051c810191838510611c0d575b601f0160051c01905b818110611c025750611af9565b848155600101611bf5565b9091508190611bec565b634e487b7160e01b845260419052602483fd5b90503461056357602036600319011261056357359063ffffffff60e01b82168092036105635760209250637965db0b60e01b8214918215611c6f575b50519015158152f35b909150636cdb3d1360e11b8114908115611ca4575b8115611c93575b509038611c66565b6301ffc9a760e01b14905038611c8b565b6303a24d0760e21b81149150611c84565b505034610257578060031936011261025757602090611cde611cd5611ce5565b60243590612534565b9051908152f35b600435906001600160a01b0382168203611cfb57565b600080fd5b602435906001600160a01b0382168203611cfb57565b602081019081106001600160401b03821117611d3157604052565b634e487b7160e01b600052604160045260246000fd5b608081019081106001600160401b03821117611d3157604052565b90601f801991011681019081106001600160401b03821117611d3157604052565b9291926001600160401b038211611d315760405191611dac601f8201601f191660200184611d62565b829481845281830111611cfb578281602093846000960137010152565b90600182811c92168015611df9575b6020831014611de357565b634e487b7160e01b600052602260045260246000fd5b91607f1691611dd8565b60005b838110611e165750506000910152565b8181015183820152602001611e06565b90602091611e3f81518092818552858086019101611e03565b601f01601f1916010190565b6001600160401b038111611d315760051b60200190565b81601f82011215611cfb57803591611e7983611e4b565b92611e876040519485611d62565b808452602092838086019260051b820101928311611cfb578301905b828210611eb1575050505090565b81358152908301908301611ea3565b9080601f83011215611cfb57816020611edb93359101611d83565b90565b90815180825260208080930193019160005b828110611efe575050505090565b835185529381019392810192600101611ef0565b3360009081527fdaa0bbc39a2aa39fc6448066b4b22ba285aef68dc2df57d4666c446d665afc9d602090815260408083205490927f61c92169ef077349011ff0b1383c894d86c5f0b41d986366b58a6cf31e93beda9160ff1615611f765750505050565b611f7f33612955565b91845190611f8c82611d47565b6042825284820192606036853782511561211557603084538251906001918210156121155790607860218501536041915b8183116120a7575050506120655760486104659386936120499361203a985198899376020b1b1b2b9b9a1b7b73a3937b61d1030b1b1b7bab73a1604d1b8a860152612011815180928c603789019101611e03565b8401917001034b99036b4b9b9b4b733903937b6329607d1b603784015251809386840190611e03565b01036028810187520185611d62565b5192839262461bcd60e51b845260048401526024830190611e26565b60648486519062461bcd60e51b825280600483015260248201527f537472696e67733a20686578206c656e67746820696e73756666696369656e746044820152fd5b909192600f81166010811015612101576f181899199a1a9b1b9c1cb0b131b232b360811b901a6120d78587612944565b5360041c9280156120ed57600019019190611fbd565b634e487b7160e01b82526011600452602482fd5b634e487b7160e01b83526032600452602483fd5b634e487b7160e01b81526032600452602490fd5b3360009081527f5562e70da342db81569f3094d36be279beaca7ad8e08f434ea188e79d2bfe10c602090815260408083205490927f9f2df0fed2c77648de5860a4cc508cd0818c85b8b8a1ab4ceeef8d981c8956a69160ff161561218d5750505050565b61219633612955565b918451906121a382611d47565b6042825284820192606036853782511561211557603084538251906001918210156121155790607860218501536041915b818311612228575050506120655760486104659386936120499361203a985198899376020b1b1b2b9b9a1b7b73a3937b61d1030b1b1b7bab73a1604d1b8a860152612011815180928c603789019101611e03565b909192600f81166010811015612101576f181899199a1a9b1b9c1cb0b131b232b360811b901a6122588587612944565b5360041c9280156120ed576000190191906121d4565b3360009081527f30adeb818ef77f204f5a603c30fa5332397b6e28fb3b7f9d937ae6a6914716de602090815260408083205490927f65d7a28e3265b37a6474929f336521b332c1681b933f6cb9f3376673440d862a9160ff16156122d25750505050565b6122db33612955565b918451906122e882611d47565b6042825284820192606036853782511561211557603084538251906001918210156121155790607860218501536041915b81831161236d575050506120655760486104659386936120499361203a985198899376020b1b1b2b9b9a1b7b73a3937b61d1030b1b1b7bab73a1604d1b8a860152612011815180928c603789019101611e03565b909192600f81166010811015612101576f181899199a1a9b1b9c1cb0b131b232b360811b901a61239d8587612944565b5360041c9280156120ed57600019019190612319565b60009080825260209060038252604092838120338252835260ff8482205416156123dd5750505050565b6123e633612955565b918451906123f382611d47565b6042825284820192606036853782511561211557603084538251906001918210156121155790607860218501536041915b818311612478575050506120655760486104659386936120499361203a985198899376020b1b1b2b9b9a1b7b73a3937b61d1030b1b1b7bab73a1604d1b8a860152612011815180928c603789019101611e03565b909192600f81166010811015612101576f181899199a1a9b1b9c1cb0b131b232b360811b901a6124a88587612944565b5360041c9280156120ed57600019019190612424565b906000918083526003602052604083209160018060a01b03169182845260205260ff6040842054166124ef57505050565b8083526003602052604083208284526020526040832060ff1981541690557ff6391f5c32d9c69d2a47ea670b442974b53935d1edc7fd64eb21e047a839171b339380a4565b6001600160a01b031690811561256157600052600060205260406000209060005260205260406000205490565b60405162461bcd60e51b815260206004820152602a60248201527f455243313135353a2061646472657373207a65726f206973206e6f742061207660448201526930b634b21037bbb732b960b11b6064820152608490fd5b60001981146125c85760010190565b634e487b7160e01b600052601160045260246000fd5b80518210156125f25760209160051b010190565b634e487b7160e01b600052603260045260246000fd5b1561260f57565b60405162461bcd60e51b815260206004820152602e60248201527f455243313135353a2063616c6c6572206973206e6f7420746f6b656e206f776e60448201526d195c881bdc88185c1c1c9bdd995960921b6064820152608490fd5b1561267257565b60405162461bcd60e51b815260206004820152602560248201527f455243313135353a207472616e7366657220746f20746865207a65726f206164604482015264647265737360d81b6064820152608490fd5b156126cc57565b60405162461bcd60e51b815260206004820152602a60248201527f455243313135353a20696e73756666696369656e742062616c616e636520666f60448201526939103a3930b739b332b960b11b6064820152608490fd5b919082018092116125c857565b1561273857565b60405162461bcd60e51b815260206004820152602860248201527f455243313135353a2069647320616e6420616d6f756e7473206c656e677468206044820152670dad2e6dac2e8c6d60c31b6064820152608490fd5b90916127a5611edb93604084526040840190611ede565b916020818403910152611ede565b90816020910312611cfb57516001600160e01b031981168103611cfb5790565b60009060033d116127e057565b905060046000803e60005160e01c90565b600060443d10611edb57604051600319913d83016004833e81516001600160401b03918282113d60248401111761284e57818401948551938411612856573d8501016020848701011161284e5750611edb92910160200190611d62565b949350505050565b50949350505050565b60405190604082018281106001600160401b03821117611d3157604052600182526020820160203682378251156125f2575290565b1561289b57565b60405162461bcd60e51b815260206004820152602360248201527f455243313135353a206275726e2066726f6d20746865207a65726f206164647260448201526265737360e81b6064820152608490fd5b156128f357565b60405162461bcd60e51b8152602060048201526024808201527f455243313135353a206275726e20616d6f756e7420657863656564732062616c604482015263616e636560e01b6064820152608490fd5b9081518110156125f2570160200190565b60405190606082018281106001600160401b03821117611d3157604052602a82526020820160403682378251156125f2576030905381516001908110156125f257607860218401536029905b8082116129f55750506129b15790565b606460405162461bcd60e51b815260206004820152602060248201527f537472696e67733a20686578206c656e67746820696e73756666696369656e746044820152fd5b9091600f81166010811015612a4e576f181899199a1a9b1b9c1cb0b131b232b360811b901a612a248486612944565b5360041c918015612a395760001901906129a1565b60246000634e487b7160e01b81526011600452fd5b60246000634e487b7160e01b81526032600452fd5b15612a6a57565b60405162461bcd60e51b815260206004820152602160248201527f455243313135353a206d696e7420746f20746865207a65726f206164647265736044820152607360f81b6064820152608490fd5b60ff60045416612ac557565b60405162461bcd60e51b815260206004820152601060248201526f14185d5cd8589b194e881c185d5cd95960821b6044820152606490fdfea2646970667358221220c6cff8c18891b502c62e0306902d7e36bc069ad5665c52cc01554b19da8cd66364736f6c634300081100332f8788117e7eff1d82e926ec794901d17c78024a50270940304540a733656f0d",
  "linkReferences": {},
  "deployedLinkReferences": {}
}