{
  "_format": "hh-sol-artifact-1",
  "contractName": "FireRockGold",
  "sourceName": "contracts/fungible-tokens/FireRockGold.sol",
  "abi": [
    {
      "inputs": [],
      "stateMutability": "nonpayable",
      "type": "constructor"
    },
    {
      "anonymous": false,
      "inputs": [
        {
          "indexed": true,
          "internalType": "address",
          "name": "owner",
          "type": "address"
        },
        {
          "indexed": true,
          "internalType": "address",
          "name": "spender",
          "type": "address"
        },
        {
          "indexed": false,
          "internalType": "uint256",
          "name": "value",
          "type": "uint256"
        }
      ],
      "name": "Approval",
      "type": "event"
    },
    {
      "anonymous": false,
      "inputs": [
        {
          "indexed": true,
          "internalType": "bytes32",
          "name": "role",
          "type": "bytes32"
        },
        {
          "indexed": true,
          "internalType": "bytes32",
          "name": "previousAdminRole",
          "type": "bytes32"
        },
        {
          "indexed": true,
          "internalType": "bytes32",
          "name": "newAdminRole",
          "type": "bytes32"
        }
      ],
      "name": "RoleAdminChanged",
      "type": "event"
    },
    {
      "anonymous": false,
      "inputs": [
        {
          "indexed": true,
          "internalType": "bytes32",
          "name": "role",
          "type": "bytes32"
        },
        {
          "indexed": true,
          "internalType": "address",
          "name": "account",
          "type": "address"
        },
        {
          "indexed": true,
          "internalType": "address",
          "name": "sender",
          "type": "address"
        }
      ],
      "name": "RoleGranted",
      "type": "event"
    },
    {
      "anonymous": false,
      "inputs": [
        {
          "indexed": true,
          "internalType": "bytes32",
          "name": "role",
          "type": "bytes32"
        },
        {
          "indexed": true,
          "internalType": "address",
          "name": "account",
          "type": "address"
        },
        {
          "indexed": true,
          "internalType": "address",
          "name": "sender",
          "type": "address"
        }
      ],
      "name": "RoleRevoked",
      "type": "event"
    },
    {
      "anonymous": false,
      "inputs": [
        {
          "indexed": true,
          "internalType": "address",
          "name": "from",
          "type": "address"
        },
        {
          "indexed": true,
          "internalType": "address",
          "name": "to",
          "type": "address"
        },
        {
          "indexed": false,
          "internalType": "uint256",
          "name": "value",
          "type": "uint256"
        }
      ],
      "name": "Transfer",
      "type": "event"
    },
    {
      "inputs": [],
      "name": "DEFAULT_ADMIN_ROLE",
      "outputs": [
        {
          "internalType": "bytes32",
          "name": "",
          "type": "bytes32"
        }
      ],
      "stateMutability": "view",
      "type": "function"
    },
    {
      "inputs": [],
      "name": "MINTER_ROLE",
      "outputs": [
        {
          "internalType": "bytes32",
          "name": "",
          "type": "bytes32"
        }
      ],
      "stateMutability": "view",
      "type": "function"
    },
    {
      "inputs": [
        {
          "internalType": "address",
          "name": "owner",
          "type": "address"
        },
        {
          "internalType": "address",
          "name": "spender",
          "type": "address"
        }
      ],
      "name": "allowance",
      "outputs": [
        {
          "internalType": "uint256",
          "name": "",
          "type": "uint256"
        }
      ],
      "stateMutability": "view",
      "type": "function"
    },
    {
      "inputs": [
        {
          "internalType": "address",
          "name": "spender",
          "type": "address"
        },
        {
          "internalType": "uint256",
          "name": "amount",
          "type": "uint256"
        }
      ],
      "name": "approve",
      "outputs": [
        {
          "internalType": "bool",
          "name": "",
          "type": "bool"
        }
      ],
      "stateMutability": "nonpayable",
      "type": "function"
    },
    {
      "inputs": [
        {
          "internalType": "address",
          "name": "account",
          "type": "address"
        }
      ],
      "name": "balanceOf",
      "outputs": [
        {
          "internalType": "uint256",
          "name": "",
          "type": "uint256"
        }
      ],
      "stateMutability": "view",
      "type": "function"
    },
    {
      "inputs": [
        {
          "internalType": "uint256",
          "name": "amount",
          "type": "uint256"
        }
      ],
      "name": "burn",
      "outputs": [],
      "stateMutability": "nonpayable",
      "type": "function"
    },
    {
      "inputs": [
        {
          "internalType": "address",
          "name": "account",
          "type": "address"
        },
        {
          "internalType": "uint256",
          "name": "amount",
          "type": "uint256"
        }
      ],
      "name": "burnFrom",
      "outputs": [],
      "stateMutability": "nonpayable",
      "type": "function"
    },
    {
      "inputs": [],
      "name": "decimals",
      "outputs": [
        {
          "internalType": "uint8",
          "name": "",
          "type": "uint8"
        }
      ],
      "stateMutability": "view",
      "type": "function"
    },
    {
      "inputs": [
        {
          "internalType": "address",
          "name": "spender",
          "type": "address"
        },
        {
          "internalType": "uint256",
          "name": "subtractedValue",
          "type": "uint256"
        }
      ],
      "name": "decreaseAllowance",
      "outputs": [
        {
          "internalType": "bool",
          "name": "",
          "type": "bool"
        }
      ],
      "stateMutability": "nonpayable",
      "type": "function"
    },
    {
      "inputs": [
        {
          "internalType": "address",
          "name": "token",
          "type": "address"
        },
        {
          "internalType": "uint256",
          "name": "amount",
          "type": "uint256"
        }
      ],
      "name": "flashFee",
      "outputs": [
        {
          "internalType": "uint256",
          "name": "",
          "type": "uint256"
        }
      ],
      "stateMutability": "view",
      "type": "function"
    },
    {
      "inputs": [
        {
          "internalType": "contract IERC3156FlashBorrower",
          "name": "receiver",
          "type": "address"
        },
        {
          "internalType": "address",
          "name": "token",
          "type": "address"
        },
        {
          "internalType": "uint256",
          "name": "amount",
          "type": "uint256"
        },
        {
          "internalType": "bytes",
          "name": "data",
          "type": "bytes"
        }
      ],
      "name": "flashLoan",
      "outputs": [
        {
          "internalType": "bool",
          "name": "",
          "type": "bool"
        }
      ],
      "stateMutability": "nonpayable",
      "type": "function"
    },
    {
      "inputs": [
        {
          "internalType": "bytes32",
          "name": "role",
          "type": "bytes32"
        }
      ],
      "name": "getRoleAdmin",
      "outputs": [
        {
          "internalType": "bytes32",
          "name": "",
          "type": "bytes32"
        }
      ],
      "stateMutability": "view",
      "type": "function"
    },
    {
      "inputs": [
        {
          "internalType": "bytes32",
          "name": "role",
          "type": "bytes32"
        },
        {
          "internalType": "address",
          "name": "account",
          "type": "address"
        }
      ],
      "name": "grantRole",
      "outputs": [],
      "stateMutability": "nonpayable",
      "type": "function"
    },
    {
      "inputs": [
        {
          "internalType": "bytes32",
          "name": "role",
          "type": "bytes32"
        },
        {
          "internalType": "address",
          "name": "account",
          "type": "address"
        }
      ],
      "name": "hasRole",
      "outputs": [
        {
          "internalType": "bool",
          "name": "",
          "type": "bool"
        }
      ],
      "stateMutability": "view",
      "type": "function"
    },
    {
      "inputs": [
        {
          "internalType": "address",
          "name": "spender",
          "type": "address"
        },
        {
          "internalType": "uint256",
          "name": "addedValue",
          "type": "uint256"
        }
      ],
      "name": "increaseAllowance",
      "outputs": [
        {
          "internalType": "bool",
          "name": "",
          "type": "bool"
        }
      ],
      "stateMutability": "nonpayable",
      "type": "function"
    },
    {
      "inputs": [
        {
          "internalType": "address",
          "name": "token",
          "type": "address"
        }
      ],
      "name": "maxFlashLoan",
      "outputs": [
        {
          "internalType": "uint256",
          "name": "",
          "type": "uint256"
        }
      ],
      "stateMutability": "view",
      "type": "function"
    },
    {
      "inputs": [
        {
          "internalType": "address",
          "name": "to",
          "type": "address"
        },
        {
          "internalType": "uint256",
          "name": "amount",
          "type": "uint256"
        }
      ],
      "name": "mint",
      "outputs": [],
      "stateMutability": "nonpayable",
      "type": "function"
    },
    {
      "inputs": [],
      "name": "name",
      "outputs": [
        {
          "internalType": "string",
          "name": "",
          "type": "string"
        }
      ],
      "stateMutability": "view",
      "type": "function"
    },
    {
      "inputs": [
        {
          "internalType": "bytes32",
          "name": "role",
          "type": "bytes32"
        },
        {
          "internalType": "address",
          "name": "account",
          "type": "address"
        }
      ],
      "name": "renounceRole",
      "outputs": [],
      "stateMutability": "nonpayable",
      "type": "function"
    },
    {
      "inputs": [
        {
          "internalType": "bytes32",
          "name": "role",
          "type": "bytes32"
        },
        {
          "internalType": "address",
          "name": "account",
          "type": "address"
        }
      ],
      "name": "revokeRole",
      "outputs": [],
      "stateMutability": "nonpayable",
      "type": "function"
    },
    {
      "inputs": [
        {
          "internalType": "bytes32",
          "name": "role",
          "type": "bytes32"
        },
        {
          "internalType": "bytes32",
          "name": "adminRole",
          "type": "bytes32"
        }
      ],
      "name": "setRoleAdmin",
      "outputs": [],
      "stateMutability": "nonpayable",
      "type": "function"
    },
    {
      "inputs": [
        {
          "internalType": "bytes4",
          "name": "interfaceId",
          "type": "bytes4"
        }
      ],
      "name": "supportsInterface",
      "outputs": [
        {
          "internalType": "bool",
          "name": "",
          "type": "bool"
        }
      ],
      "stateMutability": "view",
      "type": "function"
    },
    {
      "inputs": [],
      "name": "symbol",
      "outputs": [
        {
          "internalType": "string",
          "name": "",
          "type": "string"
        }
      ],
      "stateMutability": "view",
      "type": "function"
    },
    {
      "inputs": [],
      "name": "totalSupply",
      "outputs": [
        {
          "internalType": "uint256",
          "name": "",
          "type": "uint256"
        }
      ],
      "stateMutability": "view",
      "type": "function"
    },
    {
      "inputs": [
        {
          "internalType": "address",
          "name": "to",
          "type": "address"
        },
        {
          "internalType": "uint256",
          "name": "amount",
          "type": "uint256"
        }
      ],
      "name": "transfer",
      "outputs": [
        {
          "internalType": "bool",
          "name": "",
          "type": "bool"
        }
      ],
      "stateMutability": "nonpayable",
      "type": "function"
    },
    {
      "inputs": [
        {
          "internalType": "address",
          "name": "from",
          "type": "address"
        },
        {
          "internalType": "address",
          "name": "to",
          "type": "address"
        },
        {
          "internalType": "uint256",
          "name": "amount",
          "type": "uint256"
        }
      ],
      "name": "transferFrom",
      "outputs": [
        {
          "internalType": "bool",
          "name": "",
          "type": "bool"
        }
      ],
      "stateMutability": "nonpayable",
      "type": "function"
    }
  ],
  "bytecode": "0x6080346200038d576040906001600160401b03818301818111838210176200028d578352600c82526020906b119a5c99549bd8dad1dbdb1960a21b82840152835190848201828110828211176200028d57855260038083526246524760e81b8484015284518281116200028d578154906001968783811c9316801562000382575b878410146200036c578190601f9384811162000316575b508790848311600114620002af57600092620002a3575b505060001982851b1c191690871b1782555b83519283116200028d5760049384548781811c9116801562000282575b878210146200026d57908183869594931162000213575b5086918411600114620001a8576000936200019c575b505082861b92600019911b1c19161790555b60008052600581528260002033600052815260ff836000205416156200014c575b825161195e9081620003938239f35b600080526005815282600020903360005252816000209060ff19825416179055333360007f2f8788117e7eff1d82e926ec794901d17c78024a50270940304540a733656f0d8180a438806200013d565b0151915038806200010a565b9190879450601f1984169286600052876000209360005b89828210620001fc5750508511620001e1575b50505050811b0190556200011c565b01519060f884600019921b161c1916905538808080620001d2565b8385015187558b98909601959384019301620001bf565b909192935085600052866000208380870160051c82019289881062000263575b918a918897969594930160051c01915b82811062000253575050620000f4565b600081558796508a910162000243565b9250819262000233565b602286634e487b7160e01b6000525260246000fd5b90607f1690620000dd565b634e487b7160e01b600052604160045260246000fd5b015190503880620000ae565b90899350601f1983169186600052896000209260005b8b828210620002ff5750508411620002e6575b505050811b018255620000c0565b015160001983871b60f8161c19169055388080620002d8565b8385015186558d97909501949384019301620002c5565b90915084600052876000208480850160051c8201928a861062000362575b918b91869594930160051c01915b8281106200035257505062000097565b600081558594508b910162000342565b9250819262000334565b634e487b7160e01b600052602260045260246000fd5b92607f169262000080565b600080fdfe608060408181526004918236101561001657600080fd5b600092833560e01c91826301ffc9a714610f5f5750816306fdde0314610e6a578163095ea7b314610e4057816318160ddd14610e215781631e4e009114610c4f57816323b872dd14610c12578163248a9ca314610be75781632f2ff15d14610b3a578163313ce56714610b1e57816336568abe14610a8c5781633950935114610a3c57816340c10f191461082657816342966c68146108085781635cffe9de14610502578163613255ab146104dc57816370a08231146104a557816379cc67901461047557816391d148541461042e57816395d89b411461032b578163a217fddf14610310578163a457c2d714610268578163a9059cbb14610237578163d5391393146101fc578163d547741f146101b957508063d9d98ce41461018e5763dd62ed3e1461014357600080fd5b3461018a578060031936011261018a578060209261015f611001565b61016761101c565b6001600160a01b0391821683526001865283832091168252845220549051908152f35b5080fd5b503461018a578060031936011261018a576020906101b26101ad611001565b6116e6565b9051908152f35b919050346101f857806003193601126101f8576101f591356101f060016101de61101c565b93838752600560205286200154611032565b611221565b80f35b8280fd5b50503461018a578160031936011261018a57602090517f9f2df0fed2c77648de5860a4cc508cd0818c85b8b8a1ab4ceeef8d981c8956a68152f35b50503461018a578060031936011261018a57602090610261610257611001565b60243590336112ba565b5160018152f35b9050823461030d578260031936011261030d57610283611001565b918360243592338152600160205281812060018060a01b03861682526020522054908282106102bc576020856102618585038733611428565b608490602086519162461bcd60e51b8352820152602560248201527f45524332303a2064656372656173656420616c6c6f77616e63652062656c6f77604482015264207a65726f60d81b6064820152fd5b80fd5b50503461018a578160031936011261018a5751908152602090f35b83833461018a578160031936011261018a57805191809380549160019083821c92828516948515610424575b6020958686108114610411578589529081156103ed5750600114610395575b6103918787610387828c03836111ff565b5191829182610fd5565b0390f35b81529295507f8a35acfbc15ff81a39ae7d344fd709f28e8600b4aa8c65c6b64bfe7fe36bd19b5b8284106103da57505050826103919461038792820101948680610376565b80548685018801529286019281016103bc565b60ff19168887015250505050151560051b8301019250610387826103918680610376565b634e487b7160e01b845260228352602484fd5b93607f1693610357565b9050346101f857816003193601126101f8578160209360ff9261044f61101c565b90358252600586528282206001600160a01b039091168252855220549151911615158152f35b50503461018a5736600319011261030d576101f5610491611001565b602435906104a082338361152a565b6115c2565b50503461018a57602036600319011261018a5760209181906001600160a01b036104cd611001565b16815280845220549051908152f35b50503461018a57602036600319011261018a576020906101b26104fd611001565b6116c9565b83833461018a57608036600319011261018a576001600160a01b03918335838116919082900361030d5761053461101c565b94604480359260649081359867ffffffffffffffff91828b1161030d573660238c01121561030d578a86013592831161030d57602492368c820185011161018a5761057e836116c9565b88116107b45780848a9b9c9d61059d8b610597886116e6565b9d611741565b8d519e8f966323e30c8b60e01b8852338c89015216828701528a898701528b8887015260a060848701528260a48701520160c48501378160c482850101528260c460209d8e93601f80199101168101030181848d5af19081156107a9578091610759575b507f439148f0bbc682ca079e46d6e2c2f0c1e3b820f1a291b069d8882abf8cf18dd991500361070e5761063e6106378787611297565b308961152a565b85158015610706575b156106625788886102618961065c8a8a611297565b906115c2565b888888610671608498826115c2565b156106bd577f45524332303a207472616e7366657220746f20746865207a65726f2061646472926265737360e81b9592602392519762461bcd60e51b8952880152860152840152820152fd5b7f45524332303a207472616e736665722066726f6d20746865207a65726f2061649264647265737360d81b9592602592519762461bcd60e51b8952880152860152840152820152fd5b506001610647565b6084945063616c756560e01b927f4552433230466c6173684d696e743a20696e76616c69642072657475726e2076918a8a519662461bcd60e51b885287015280860152840152820152fd5b90508a82813d83116107a2575b61077081836111ff565b8101031261030d57507f439148f0bbc682ca079e46d6e2c2f0c1e3b820f1a291b069d8882abf8cf18dd990518b610601565b503d610766565b8a51903d90823e3d90fd5b895162461bcd60e51b8152602081890152602b818601527f4552433230466c6173684d696e743a20616d6f756e742065786365656473206d818801526a30bc233630b9b42637b0b760a91b81870152608490fd5b83903461018a57602036600319011261018a576101f59035336115c2565b919050346101f857806003193601126101f857610841611001565b917f9f2df0fed2c77648de5860a4cc508cd0818c85b8b8a1ab4ceeef8d981c8956a680855260209060058252838620338752825260ff84872054161561088e57856101f560243587611741565b85906108993361180b565b8551916108a5836111cd565b60428352848301936060368637835115610a295760308553835190600191821015610a165790607860218601536041915b8183116109ab5750505061097b576109779386936109639361095460489461092b9a519a8576020b1b1b2b9b9a1b7b73a3937b61d1030b1b1b7bab73a1604d1b8d978801528251928391603789019101610fb2565b8401917001034b99036b4b9b9b4b733903937b6329607d1b603784015251809386840190610fb2565b010360288101875201856111ff565b5162461bcd60e51b81529283928301610fd5565b0390fd5b50505080606493519262461bcd60e51b845283015260248201526000805160206119098339815191526044820152fd5b909192600f81166010811015610a03576f181899199a1a9b1b9c1cb0b131b232b360811b901a6109db85886117e4565b53881c9280156109f0576000190191906108d6565b634e487b7160e01b825260118952602482fd5b634e487b7160e01b835260328a52602483fd5b634e487b7160e01b815260328852602490fd5b634e487b7160e01b815260328752602490fd5b50503461018a578060031936011261018a57610261602092610a85610a5f611001565b338352600186528483206001600160a01b03821684528652918490205460243590611297565b9033611428565b8391503461018a578260031936011261018a57610aa761101c565b90336001600160a01b03831603610ac357906101f59135611221565b608490602085519162461bcd60e51b8352820152602f60248201527f416363657373436f6e74726f6c3a2063616e206f6e6c792072656e6f756e636560448201526e103937b632b9903337b91039b2b63360891b6064820152fd5b50503461018a578160031936011261018a576020905160128152f35b9050346101f857816003193601126101f8573590610b5661101c565b908284526005602052610b6e60018286200154611032565b828452600560209081528185206001600160a01b039093168086529290528084205460ff1615610b9c578380f35b82845260056020528084208285526020528320600160ff1982541617905533917f2f8788117e7eff1d82e926ec794901d17c78024a50270940304540a733656f0d8480a43880808380f35b9050346101f85760203660031901126101f85781602093600192358152600585522001549051908152f35b50503461018a57606036600319011261018a57602090610261610c33611001565b610c3b61101c565b60443591610c4a83338361152a565b6112ba565b919050346101f857806003193601126101f8578135602480359385805260209160058352848720338852835260ff858820541615610cc457505081855260059052908320600101805490839055907fbd79b86ffe0ab8e8776151514217cd7cacd52c909f66475c3af44e129f0b00ff8480a480f35b86919350610cd13361180b565b85519183610cde846111cd565b60428452858401946060368737845115610e0f5760308653845190600191821015610dfd5790607860218701536041915b818311610d9457505050610d6557506109779386936109639361095460489461092b9a519a8576020b1b1b2b9b9a1b7b73a3937b61d1030b1b1b7bab73a1604d1b8d978801528251928391603789019101610fb2565b9250505081606494519362461bcd60e51b85528401528201526000805160206119098339815191526044820152fd5b909192600f81166010811015610deb576f181899199a1a9b1b9c1cb0b131b232b360811b901a610dc485896117e4565b53891c928015610dd957600019019190610d0f565b634e487b7160e01b825260118a528482fd5b634e487b7160e01b835260328b528583fd5b634e487b7160e01b8152603289528390fd5b634e487b7160e01b8152603288529050fd5b50503461018a578160031936011261018a576020906002549051908152f35b50503461018a578060031936011261018a57602090610261610e60611001565b6024359033611428565b919050346101f857826003193601126101f857805191836003549060019082821c928281168015610f55575b6020958686108214610f425750848852908115610f205750600114610ec7575b6103918686610387828b03836111ff565b929550600383527fc2575a0e9e593c00f959f8c92f12db2869c3395a3b0502d05e2516446f71f85b5b828410610f0d575050508261039194610387928201019438610eb6565b8054868501880152928601928101610ef0565b60ff191687860152505050151560051b83010192506103878261039138610eb6565b634e487b7160e01b845260229052602483fd5b93607f1693610e96565b8491346101f85760203660031901126101f8573563ffffffff60e01b81168091036101f85760209250637965db0b60e01b8114908115610fa1575b5015158152f35b6301ffc9a760e01b14905083610f9a565b60005b838110610fc55750506000910152565b8181015183820152602001610fb5565b60409160208252610ff58151809281602086015260208686019101610fb2565b601f01601f1916010190565b600435906001600160a01b038216820361101757565b600080fd5b602435906001600160a01b038216820361101757565b600081815260209060058252604092838220338352835260ff84832054161561105b5750505050565b6110643361180b565b845191611070836111cd565b604283528483019360603686378351156111b957603085538351906001918210156111b95790607860218601536041915b81831161114b5750505061111b5761092b938593611105936110f66048946109779951988576020b1b1b2b9b9a1b7b73a3937b61d1030b1b1b7bab73a1604d1b8b978801528251928391603789019101610fb2565b010360288101855201836111ff565b5162461bcd60e51b815291829160048301610fd5565b60648486519062461bcd60e51b825280600483015260248201526000805160206119098339815191526044820152fd5b909192600f811660108110156111a5576f181899199a1a9b1b9c1cb0b131b232b360811b901a61117b85886117e4565b5360041c928015611191576000190191906110a1565b634e487b7160e01b82526011600452602482fd5b634e487b7160e01b83526032600452602483fd5b634e487b7160e01b81526032600452602490fd5b6080810190811067ffffffffffffffff8211176111e957604052565b634e487b7160e01b600052604160045260246000fd5b90601f8019910116810190811067ffffffffffffffff8211176111e957604052565b906000918083526005602052604083209160018060a01b03169182845260205260ff60408420541661125257505050565b8083526005602052604083208284526020526040832060ff1981541690557ff6391f5c32d9c69d2a47ea670b442974b53935d1edc7fd64eb21e047a839171b339380a4565b919082018092116112a457565b634e487b7160e01b600052601160045260246000fd5b6001600160a01b039081169182156113d557169182156113845760008281528060205260408120549180831061133057604082827fddf252ad1be2c89b69c2b068fc378daa952ba7f163c4a11628f55a4df523b3ef958760209652828652038282205586815220818154019055604051908152a3565b60405162461bcd60e51b815260206004820152602660248201527f45524332303a207472616e7366657220616d6f756e7420657863656564732062604482015265616c616e636560d01b6064820152608490fd5b60405162461bcd60e51b815260206004820152602360248201527f45524332303a207472616e7366657220746f20746865207a65726f206164647260448201526265737360e81b6064820152608490fd5b60405162461bcd60e51b815260206004820152602560248201527f45524332303a207472616e736665722066726f6d20746865207a65726f206164604482015264647265737360d81b6064820152608490fd5b6001600160a01b039081169182156114d957169182156114895760207f8c5be1e5ebec7d5bd14f71427d1e84f3dd0314c0f7b2291e5b200ac8c7c3b925918360005260018252604060002085600052825280604060002055604051908152a3565b60405162461bcd60e51b815260206004820152602260248201527f45524332303a20617070726f766520746f20746865207a65726f206164647265604482015261737360f01b6064820152608490fd5b60405162461bcd60e51b8152602060048201526024808201527f45524332303a20617070726f76652066726f6d20746865207a65726f206164646044820152637265737360e01b6064820152608490fd5b9060018060a01b0380831660005260016020526040600020908216600052602052604060002054926000198403611562575b50505050565b80841061157d57611574930391611428565b3880808061155c565b60405162461bcd60e51b815260206004820152601d60248201527f45524332303a20696e73756666696369656e7420616c6c6f77616e63650000006044820152606490fd5b6001600160a01b0316801561167a5760009181835282602052604083205481811061162a57817fddf252ad1be2c89b69c2b068fc378daa952ba7f163c4a11628f55a4df523b3ef926020928587528684520360408620558060025403600255604051908152a3565b60405162461bcd60e51b815260206004820152602260248201527f45524332303a206275726e20616d6f756e7420657863656564732062616c616e604482015261636560f01b6064820152608490fd5b60405162461bcd60e51b815260206004820152602160248201527f45524332303a206275726e2066726f6d20746865207a65726f206164647265736044820152607360f81b6064820152608490fd5b6000906001600160a01b031630036116e357506002541990565b90565b306001600160a01b03909116036116fc57600090565b60405162461bcd60e51b815260206004820152601b60248201527f4552433230466c6173684d696e743a2077726f6e6720746f6b656e00000000006044820152606490fd5b6001600160a01b031690811561179f577fddf252ad1be2c89b69c2b068fc378daa952ba7f163c4a11628f55a4df523b3ef602082611783600094600254611297565b60025584845283825260408420818154019055604051908152a3565b60405162461bcd60e51b815260206004820152601f60248201527f45524332303a206d696e7420746f20746865207a65726f2061646472657373006044820152606490fd5b9081518110156117f5570160200190565b634e487b7160e01b600052603260045260246000fd5b604051906060820182811067ffffffffffffffff8211176111e957604052602a82526020820160403682378251156117f5576030905381516001908110156117f557607860218401536029905b80821161189a5750506118685790565b606460405162461bcd60e51b815260206004820152602060248201526000805160206119098339815191526044820152fd5b9091600f811660108110156118f3576f181899199a1a9b1b9c1cb0b131b232b360811b901a6118c984866117e4565b5360041c9180156118de576000190190611858565b60246000634e487b7160e01b81526011600452fd5b60246000634e487b7160e01b81526032600452fdfe537472696e67733a20686578206c656e67746820696e73756666696369656e74a2646970667358221220d22ac581f33ad8851b3295d5401e657c6811a4f512a9ee78223db29e95f22df964736f6c63430008110033",
  "linkReferences": {},
  "deployedLinkReferences": {}
}