{
  "_format": "hh-sol-artifact-1",
  "contractName": "Signatures",
  "sourceName": "contracts/utility/Signatures.sol",
  "abi": [
    {
      "inputs": [
        {
          "internalType": "bytes32",
          "name": "_messageHash",
          "type": "bytes32"
        }
      ],
      "name": "getEthSignedMessageHash",
      "outputs": [
        {
          "internalType": "bytes32",
          "name": "",
          "type": "bytes32"
        }
      ],
      "stateMutability": "pure",
      "type": "function"
    },
    {
      "inputs": [
        {
          "internalType": "string",
          "name": "_email",
          "type": "string"
        },
        {
          "internalType": "address",
          "name": "_account",
          "type": "address"
        }
      ],
      "name": "getMessageHash",
      "outputs": [
        {
          "internalType": "bytes32",
          "name": "",
          "type": "bytes32"
        }
      ],
      "stateMutability": "pure",
      "type": "function"
    },
    {
      "inputs": [
        {
          "internalType": "bytes32",
          "name": "_messageHash",
          "type": "bytes32"
        },
        {
          "internalType": "bytes",
          "name": "_signature",
          "type": "bytes"
        },
        {
          "internalType": "address",
          "name": "owner",
          "type": "address"
        }
      ],
      "name": "isValidSignature",
      "outputs": [
        {
          "internalType": "bool",
          "name": "",
          "type": "bool"
        }
      ],
      "stateMutability": "pure",
      "type": "function"
    },
    {
      "inputs": [
        {
          "internalType": "bytes32",
          "name": "_ethSignedMessageHash",
          "type": "bytes32"
        },
        {
          "internalType": "bytes",
          "name": "_signature",
          "type": "bytes"
        }
      ],
      "name": "recoverSigner",
      "outputs": [
        {
          "internalType": "address",
          "name": "",
          "type": "address"
        }
      ],
      "stateMutability": "pure",
      "type": "function"
    },
    {
      "inputs": [
        {
          "internalType": "bytes",
          "name": "sig",
          "type": "bytes"
        }
      ],
      "name": "splitSignature",
      "outputs": [
        {
          "internalType": "bytes32",
          "name": "r",
          "type": "bytes32"
        },
        {
          "internalType": "bytes32",
          "name": "s",
          "type": "bytes32"
        },
        {
          "internalType": "uint8",
          "name": "v",
          "type": "uint8"
        }
      ],
      "stateMutability": "pure",
      "type": "function"
    },
    {
      "inputs": [
        {
          "internalType": "string",
          "name": "_email",
          "type": "string"
        },
        {
          "internalType": "address",
          "name": "_account",
          "type": "address"
        },
        {
          "internalType": "bytes",
          "name": "signature",
          "type": "bytes"
        }
      ],
      "name": "verify",
      "outputs": [
        {
          "internalType": "bool",
          "name": "",
          "type": "bool"
        }
      ],
      "stateMutability": "pure",
      "type": "function"
    }
  ],
  "bytecode": "0x6080806040523461001a576107379081610020823930815050f35b600080fdfe60806040526004361015610013575b600080fd5b60003560e01c80630d939db71461008b57806376f554d914610082578063846d1d831461007957806397aba7f914610070578063a7bb5803146100675763fa5408011461005f57600080fd5b61000e610357565b5061000e610307565b5061000e6102ba565b5061000e61024a565b5061000e610202565b606036600319011261000e5760243567ffffffffffffffff811161000e576100b9602091369060040161018a565b6100d86100d06100c76101a8565b92600435610628565b919091610508565b6040516001600160a01b0391821691909216148152f35b50634e487b7160e01b600052604160045260246000fd5b90601f8019910116810190811067ffffffffffffffff82111761012857604052565b6101306100ef565b604052565b92919267ffffffffffffffff821161017d575b60405191610160601f8201601f191660200184610106565b82948184528183011161000e578281602093846000960137010152565b6101856100ef565b610148565b9080601f8301121561000e578160206101a593359101610135565b90565b604435906001600160a01b038216820361000e57565b602435906001600160a01b038216820361000e57565b9181601f8401121561000e5782359167ffffffffffffffff831161000e576020838186019501011161000e57565b50604036600319011261000e5760043567ffffffffffffffff811161000e5761024261023460209236906004016101d4565b61023c6101be565b91610371565b604051908152f35b50606036600319011261000e5767ffffffffffffffff60043581811161000e576102789036906004016101d4565b90916102826101be565b9160443591821161000e576020936102b56102b0856102a86100d89636906004016101d4565b959094610371565b6103b6565b610489565b50604036600319011261000e5760243567ffffffffffffffff811161000e576102f56102ec60209236906004016101d4565b90600435610489565b6040516001600160a01b039091168152f35b50602036600319011261000e5760043567ffffffffffffffff811161000e5760ff61034061033b606093369060040161018a565b610418565b906040939293519384526020840152166040820152f35b50602036600319011261000e5760206102426004356103b6565b919060346103b09160405193818592602084019788378201906bffffffffffffffffffffffff199060601b166020820152036014810184520182610106565b51902090565b60405160208101917f19457468657265756d205369676e6564204d6573736167653a0a3332000000008352603c820152603c81526060810181811067ffffffffffffffff82111761040b575b60405251902090565b6104136100ef565b610402565b6041815103610437576020810151916060604083015192015160001a90565b60405162461bcd60e51b815260206004820152601860248201527f496e76616c6964207369676e6174757265206c656e67746800000000000000006044820152606490fd5b506040513d6000823e3d90fd5b6104c6906104a061033b6000946020963691610135565b6040805194855260ff909116602085015283019190915260608201529081906080820190565b838052039060015afa156104db575b60005190565b6104e361047c565b6104d5565b600511156104f257565b634e487b7160e01b600052602160045260246000fd5b610511816104e8565b806105195750565b610522816104e8565b6001810361056f5760405162461bcd60e51b815260206004820152601860248201527f45434453413a20696e76616c6964207369676e617475726500000000000000006044820152606490fd5b610578816104e8565b600281036105c55760405162461bcd60e51b815260206004820152601f60248201527f45434453413a20696e76616c6964207369676e6174757265206c656e677468006044820152606490fd5b806105d16003926104e8565b146105d857565b60405162461bcd60e51b815260206004820152602260248201527f45434453413a20696e76616c6964207369676e6174757265202773272076616c604482015261756560f01b6064820152608490fd5b90604181511460001461065657610652916020820151906060604084015193015160001a90610660565b9091565b5050600090600290565b939291907f7fffffffffffffffffffffffffffffff5d576e7357a4501ddfe92f46681b20a083116106f457916106b79160209360405196879094939260ff6060936080840197845216602083015260408201520152565b836000948592838052039060015afa156106e7575b81516001600160a01b038116156106e1579190565b50600190565b6106ef61047c565b6106cc565b505050905060009060039056fea2646970667358221220b6327d21859d62c15050ea38dce3bc1a216e6ea2dccc45c57f05dbbb0262544f64736f6c63430008110033",
  "linkReferences": {},
  "deployedLinkReferences": {}
}