{
  "_format": "hh-sol-artifact-1",
  "contractName": "SingleUseMerkleAirdrop",
  "sourceName": "contracts/utility/SingleUseMerkleAirdrop.sol",
  "abi": [
    {
      "inputs": [
        {
          "internalType": "bytes32",
          "name": "_merkleRoot",
          "type": "bytes32"
        },
        {
          "internalType": "contract IERC20",
          "name": "_token",
          "type": "address"
        }
      ],
      "stateMutability": "nonpayable",
      "type": "constructor"
    },
    {
      "inputs": [],
      "name": "AlreadyClaimed",
      "type": "error"
    },
    {
      "inputs": [],
      "name": "NotInMerkle",
      "type": "error"
    },
    {
      "anonymous": false,
      "inputs": [
        {
          "indexed": false,
          "internalType": "address",
          "name": "claimant",
          "type": "address"
        },
        {
          "indexed": false,
          "internalType": "uint256",
          "name": "balance",
          "type": "uint256"
        }
      ],
      "name": "Claimed",
      "type": "event"
    },
    {
      "anonymous": false,
      "inputs": [
        {
          "indexed": true,
          "internalType": "address",
          "name": "previousOwner",
          "type": "address"
        },
        {
          "indexed": true,
          "internalType": "address",
          "name": "newOwner",
          "type": "address"
        }
      ],
      "name": "OwnershipTransferred",
      "type": "event"
    },
    {
      "inputs": [
        {
          "internalType": "address",
          "name": "to",
          "type": "address"
        },
        {
          "internalType": "uint256",
          "name": "amount",
          "type": "uint256"
        },
        {
          "internalType": "bytes32[]",
          "name": "proof",
          "type": "bytes32[]"
        }
      ],
      "name": "claim",
      "outputs": [],
      "stateMutability": "nonpayable",
      "type": "function"
    },
    {
      "inputs": [
        {
          "internalType": "address",
          "name": "",
          "type": "address"
        }
      ],
      "name": "hasClaimed",
      "outputs": [
        {
          "internalType": "bool",
          "name": "",
          "type": "bool"
        }
      ],
      "stateMutability": "view",
      "type": "function"
    },
    {
      "inputs": [],
      "name": "merkleRoot",
      "outputs": [
        {
          "internalType": "bytes32",
          "name": "",
          "type": "bytes32"
        }
      ],
      "stateMutability": "view",
      "type": "function"
    },
    {
      "inputs": [],
      "name": "owner",
      "outputs": [
        {
          "internalType": "address",
          "name": "",
          "type": "address"
        }
      ],
      "stateMutability": "view",
      "type": "function"
    },
    {
      "inputs": [],
      "name": "renounceOwnership",
      "outputs": [],
      "stateMutability": "nonpayable",
      "type": "function"
    },
    {
      "inputs": [],
      "name": "token",
      "outputs": [
        {
          "internalType": "contract IERC20",
          "name": "",
          "type": "address"
        }
      ],
      "stateMutability": "view",
      "type": "function"
    },
    {
      "inputs": [
        {
          "internalType": "address",
          "name": "newOwner",
          "type": "address"
        }
      ],
      "name": "transferOwnership",
      "outputs": [],
      "stateMutability": "nonpayable",
      "type": "function"
    }
  ],
  "bytecode": "0x60a0346100c157601f61089238819003918201601f19168301916001600160401b038311848410176100c65780849260409485528339810103126100c15780516020909101516001600160a01b0391828216918290036100c1576000549060018060a01b0319913383821617600055604051943391167f8be0079c531659141344cd1fd0a4f28419497f9722a3daafe3b4186f6b6457e0600080a360805260015416176001556107b590816100dd82396080518181816103ac01526105f80152f35b600080fd5b634e487b7160e01b600052604160045260246000fdfe608080604052600436101561001357600080fd5b60003560e01c9081632eb4a7ab146105e2575080633d13f87414610224578063715018a6146101cb57806373b2e80e1461018c5780638da5cb5b14610163578063f2fde38b1461009a5763fc0c546a1461006c57600080fd5b34610095576000366003190112610095576001546040516001600160a01b039091168152602090f35b600080fd5b34610095576020366003190112610095576100b361061b565b6100bb610631565b6001600160a01b0390811690811561010f57600054826bffffffffffffffffffffffff60a01b821617600055167f8be0079c531659141344cd1fd0a4f28419497f9722a3daafe3b4186f6b6457e0600080a3005b60405162461bcd60e51b815260206004820152602660248201527f4f776e61626c653a206e6577206f776e657220697320746865207a65726f206160448201526564647265737360d01b6064820152608490fd5b34610095576000366003190112610095576000546040516001600160a01b039091168152602090f35b34610095576020366003190112610095576001600160a01b036101ad61061b565b166000526002602052602060ff604060002054166040519015158152f35b34610095576000366003190112610095576101e4610631565b600080546001600160a01b0319811682556001600160a01b03167f8be0079c531659141344cd1fd0a4f28419497f9722a3daafe3b4186f6b6457e08280a3005b346100955760603660031901126100955761023d61061b565b67ffffffffffffffff60443511610095573660236044350112156100955767ffffffffffffffff6044356004013511610095573660246044356004013560051b604435010111610095576001600160a01b03811660009081526002602052604090205460ff166105d0576040516bffffffffffffffffffffffff198260601b16602082015260243560348201526034815280606081011067ffffffffffffffff60608301111761058b57606081016040528051602082012061030e60206044356004013560051b0160608401610689565b60443560048101356060840152602401608083015b60246044356004013560051b604435010182106105c0575050906000915b60608201518310156103a85760808360051b83010151908181106000146103975760005260205260406000205b9160001981146103815760010191610341565b634e487b7160e01b600052601160045260246000fd5b90600052602052604060002061036e565b83907f0000000000000000000000000000000000000000000000000000000000000000036105ae576001600160a01b03818116600081815260026020908152604091829020805460ff1916600190811790915554915163a9059cbb60e01b9181019182526024808201949094529235604480850191909152835292169190601f1990610435606482610689565b60405192604084019084821067ffffffffffffffff83111761058b576000928392604052602086527f5361666545524332303a206c6f772d6c6576656c2063616c6c206661696c65646020870152519082875af13d156105a1573d9367ffffffffffffffff851161058b576104c8946104b9602060405195601f8401160185610689565b83523d6000602085013e6106ab565b80518061050e575b604080516001600160a01b038516815260243560208201527fd8138f8a3f377c5259ca548e70e4c2de94f129f5a11036a15b69513cba2b426a9190a1005b81602091810103126100955760200151801590811503610095576105335781806104d0565b60405162461bcd60e51b815260206004820152602a60248201527f5361666545524332303a204552433230206f7065726174696f6e20646964206e6044820152691bdd081cdd58d8d9595960b21b6064820152608490fd5b634e487b7160e01b600052604160045260246000fd5b6104c893606092506106ab565b60405163452c2df160e11b8152600490fd5b8135815260209182019101610323565b604051630c8d9eab60e31b8152600490fd5b34610095576000366003190112610095576020907f00000000000000000000000000000000000000000000000000000000000000008152f35b600435906001600160a01b038216820361009557565b6000546001600160a01b0316330361064557565b606460405162461bcd60e51b815260206004820152602060248201527f4f776e61626c653a2063616c6c6572206973206e6f7420746865206f776e65726044820152fd5b90601f8019910116810190811067ffffffffffffffff82111761058b57604052565b9192901561070d57508151156106bf575090565b3b156106c85790565b60405162461bcd60e51b815260206004820152601d60248201527f416464726573733a2063616c6c20746f206e6f6e2d636f6e74726163740000006044820152606490fd5b8251909150156107205750805190602001fd5b6040519062461bcd60e51b82528160208060048301528251908160248401526000935b828510610766575050604492506000838284010152601f80199101168101030190fd5b848101820151868601604401529381019385935061074356fea264697066735822122056bbf0a13a87ba3a26f738ea46f80edbaf8d764f804d52069bbfa737a52a424064736f6c63430008110033",
  "linkReferences": {},
  "deployedLinkReferences": {}
}